{
  "contractName": "ProjectX",
  "abi": [
    {
      "inputs": [],
      "stateMutability": "nonpayable",
      "type": "constructor"
    },
    {
      "inputs": [
        {
          "internalType": "uint256",
          "name": "type_id",
          "type": "uint256"
        }
      ],
      "name": "register",
      "outputs": [],
      "stateMutability": "nonpayable",
      "type": "function"
    },
    {
      "inputs": [],
      "name": "stake",
      "outputs": [],
      "stateMutability": "payable",
      "type": "function"
    },
    {
      "inputs": [
        {
          "internalType": "bytes32",
          "name": "encripted_description_hash",
          "type": "bytes32"
        }
      ],
      "name": "describe",
      "outputs": [],
      "stateMutability": "nonpayable",
      "type": "function"
    },
    {
      "inputs": [],
      "name": "validate",
      "outputs": [],
      "stateMutability": "nonpayable",
      "type": "function"
    },
    {
      "inputs": [],
      "name": "donate",
      "outputs": [],
      "stateMutability": "payable",
      "type": "function"
    },
    {
      "inputs": [
        {
          "internalType": "address payable",
          "name": "receiver",
          "type": "address"
        }
      ],
      "name": "donate_to",
      "outputs": [],
      "stateMutability": "payable",
      "type": "function"
    },
    {
      "inputs": [
        {
          "internalType": "uint256",
          "name": "goods_number",
          "type": "uint256"
        },
        {
          "internalType": "uint256",
          "name": "quantity",
          "type": "uint256"
        }
      ],
      "name": "buy_goods",
      "outputs": [],
      "stateMutability": "payable",
      "type": "function"
    },
    {
      "inputs": [
        {
          "internalType": "address payable",
          "name": "receiver",
          "type": "address"
        },
        {
          "internalType": "uint256",
          "name": "amount",
          "type": "uint256"
        }
      ],
      "name": "distribute",
      "outputs": [],
      "stateMutability": "payable",
      "type": "function"
    },
    {
      "inputs": [
        {
          "internalType": "uint256",
          "name": "goods_number",
          "type": "uint256"
        },
        {
          "internalType": "uint256",
          "name": "price",
          "type": "uint256"
        },
        {
          "internalType": "bytes32",
          "name": "description",
          "type": "bytes32"
        }
      ],
      "name": "vendor_register_goods",
      "outputs": [],
      "stateMutability": "nonpayable",
      "type": "function"
    },
    {
      "inputs": [
        {
          "internalType": "uint256",
          "name": "goods_number",
          "type": "uint256"
        }
      ],
      "name": "vendor_cancel_goods",
      "outputs": [],
      "stateMutability": "nonpayable",
      "type": "function"
    },
    {
      "inputs": [
        {
          "internalType": "uint256",
          "name": "amount",
          "type": "uint256"
        }
      ],
      "name": "vendor_withdraw",
      "outputs": [],
      "stateMutability": "payable",
      "type": "function"
    },
    {
      "inputs": [],
      "name": "vendor_withdraw_all",
      "outputs": [],
      "stateMutability": "nonpayable",
      "type": "function"
    },
    {
      "inputs": [],
      "name": "quit",
      "outputs": [],
      "stateMutability": "nonpayable",
      "type": "function"
    },
    {
      "inputs": [],
      "name": "sponsor",
      "outputs": [],
      "stateMutability": "payable",
      "type": "function"
    },
    {
      "inputs": [],
      "name": "get_admin_donation_pool",
      "outputs": [
        {
          "internalType": "uint256",
          "name": "",
          "type": "uint256"
        }
      ],
      "stateMutability": "view",
      "type": "function"
    },
    {
      "inputs": [
        {
          "internalType": "address",
          "name": "a",
          "type": "address"
        }
      ],
      "name": "get_donation_record",
      "outputs": [
        {
          "internalType": "uint256",
          "name": "",
          "type": "uint256"
        }
      ],
      "stateMutability": "view",
      "type": "function"
    },
    {
      "inputs": [
        {
          "internalType": "address",
          "name": "a",
          "type": "address"
        }
      ],
      "name": "get_Recipient_donation_pool",
      "outputs": [
        {
          "internalType": "uint256",
          "name": "",
          "type": "uint256"
        }
      ],
      "stateMutability": "view",
      "type": "function"
    },
    {
      "inputs": [
        {
          "internalType": "address",
          "name": "a",
          "type": "address"
        }
      ],
      "name": "get_NPO_donation_pool",
      "outputs": [
        {
          "internalType": "uint256",
          "name": "",
          "type": "uint256"
        }
      ],
      "stateMutability": "view",
      "type": "function"
    },
    {
      "inputs": [
        {
          "internalType": "address",
          "name": "a",
          "type": "address"
        }
      ],
      "name": "get_CrowdFund_donation_pool",
      "outputs": [
        {
          "internalType": "uint256",
          "name": "",
          "type": "uint256"
        }
      ],
      "stateMutability": "view",
      "type": "function"
    },
    {
      "inputs": [
        {
          "internalType": "address",
          "name": "a",
          "type": "address"
        }
      ],
      "name": "get_CrowdFund_donation_target",
      "outputs": [
        {
          "internalType": "uint256",
          "name": "",
          "type": "uint256"
        }
      ],
      "stateMutability": "view",
      "type": "function"
    },
    {
      "inputs": [
        {
          "internalType": "address",
          "name": "a",
          "type": "address"
        }
      ],
      "name": "get_Vendor_pool",
      "outputs": [
        {
          "internalType": "uint256",
          "name": "",
          "type": "uint256"
        }
      ],
      "stateMutability": "view",
      "type": "function"
    },
    {
      "inputs": [
        {
          "internalType": "address",
          "name": "a",
          "type": "address"
        }
      ],
      "name": "get_type_ID",
      "outputs": [
        {
          "internalType": "uint256",
          "name": "",
          "type": "uint256"
        }
      ],
      "stateMutability": "view",
      "type": "function"
    },
    {
      "inputs": [
        {
          "internalType": "address",
          "name": "a",
          "type": "address"
        }
      ],
      "name": "get_staked_fund",
      "outputs": [
        {
          "internalType": "uint256",
          "name": "",
          "type": "uint256"
        }
      ],
      "stateMutability": "view",
      "type": "function"
    },
    {
      "inputs": [
        {
          "internalType": "address",
          "name": "a",
          "type": "address"
        }
      ],
      "name": "get_description_hash",
      "outputs": [
        {
          "internalType": "bytes32",
          "name": "",
          "type": "bytes32"
        }
      ],
      "stateMutability": "view",
      "type": "function"
    },
    {
      "inputs": [
        {
          "internalType": "uint256",
          "name": "type_id",
          "type": "uint256"
        }
      ],
      "name": "get_staking_price",
      "outputs": [
        {
          "internalType": "uint256",
          "name": "",
          "type": "uint256"
        }
      ],
      "stateMutability": "view",
      "type": "function"
    },
    {
      "inputs": [
        {
          "internalType": "uint256",
          "name": "type_id",
          "type": "uint256"
        },
        {
          "internalType": "uint256",
          "name": "amount",
          "type": "uint256"
        }
      ],
      "name": "set_staking_price",
      "outputs": [],
      "stateMutability": "nonpayable",
      "type": "function"
    },
    {
      "inputs": [
        {
          "internalType": "address",
          "name": "a",
          "type": "address"
        }
      ],
      "name": "lock_address",
      "outputs": [],
      "stateMutability": "nonpayable",
      "type": "function"
    },
    {
      "inputs": [
        {
          "internalType": "address",
          "name": "a",
          "type": "address"
        }
      ],
      "name": "unlock",
      "outputs": [],
      "stateMutability": "nonpayable",
      "type": "function"
    }
  ],
  "bytecode": "0x60806040526040518060c001604052806040518060400160405280600781526020017f64656661756c740000000000000000000000000000000000000000000000000081525081526020016040518060400160405280600581526020017f446f6e6f7200000000000000000000000000000000000000000000000000000081525081526020016040518060400160405280600381526020017f4e504f000000000000000000000000000000000000000000000000000000000081525081526020016040518060400160405280600981526020017f526563697069656e74000000000000000000000000000000000000000000000081525081526020016040518060400160405280600981526020017f43726f776446756e64000000000000000000000000000000000000000000000081525081526020016040518060400160405280600681526020017f56656e646f720000000000000000000000000000000000000000000000000000815250815250601290600662000181929190620003c3565b503480156200018f57600080fd5b50336000806101000a81548173ffffffffffffffffffffffffffffffffffffffff021916908373ffffffffffffffffffffffffffffffffffffffff16021790555060006001819055506000600190505b6012805490508110156200028c5780601160128381548110620001fe57fe5b906000526020600020016040518082805460018160011615610100020316600290048015620002675780601f106200024457610100808354040283529182019162000267565b820191906000526020600020905b81548152906001019060200180831162000252575b50509150509081526020016040518091039020819055508080600101915050620001df565b5068013f306a2409fc0000601360405180807f526563697069656e7400000000000000000000000000000000000000000000008152506009019050908152602001604051809103902081905550680ca18649835a040000601360405180807f4e504f0000000000000000000000000000000000000000000000000000000000815250600301905090815260200160405180910390208190555068241a9b4f617a280000601360405180807f56656e646f7200000000000000000000000000000000000000000000000000008152506006019050908152602001604051809103902081905550687e78e1033c7a540000601360405180807f43726f776446756e640000000000000000000000000000000000000000000000815250600901905090815260200160405180910390208190555062000544565b82805482825590600052602060002090810192821562000417579160200282015b8281111562000416578251829080519060200190620004059291906200042a565b5091602001919060010190620003e4565b5b509050620004269190620004b1565b5090565b828054600181600116156101000203166002900490600052602060002090601f016020900481019282601f106200046d57805160ff19168380011785556200049e565b828001600101855582156200049e579182015b828111156200049d57825182559160200191906001019062000480565b5b509050620004ad9190620004d9565b5090565b5b80821115620004d55760008181620004cb9190620004f8565b50600101620004b2565b5090565b5b80821115620004f4576000816000905550600101620004da565b5090565b50805460018160011615610100020316600290046000825580601f1062000520575062000541565b601f016020900490600052602060002090810190620005409190620004d9565b5b50565b61417880620005546000396000f3fe6080604052600436106101b75760003560e01c80636901f668116100ec578063e7c000891161008a578063f207564e11610064578063f207564e14610800578063f290165f1461083b578063fb932108146108a0578063fc2b8cc3146108ee576101b7565b8063e7c0008914610790578063ec31fb28146107be578063ed88c68e146107f6576101b7565b8063b9748be1116100c6578063b9748be114610684578063c34c9753146106af578063c9910891146106c6578063dbe574651461072b576101b7565b80636901f668146105fe57806377c936621461061557806388f7739e1461061f576101b7565b806344d63a761161015957806356b153001161013357806356b153001461048057806357bee067146104cf57806359cf0858146105345780636180c4a414610599576101b7565b806344d63a7614610392578063489d0278146103d657806349002e401461043b576101b7565b806320c4cc5f1161019557806320c4cc5f146102975780632f6c493c146102e85780633a4b66f11461033957806343195df714610343576101b7565b80630220ef28146101bc5780630ef05393146101f75780630faf94f91461025c575b600080fd5b3480156101c857600080fd5b506101f5600480360360208110156101df57600080fd5b8101908080359060200190929190505050610905565b005b34801561020357600080fd5b506102466004803603602081101561021a57600080fd5b81019080803573ffffffffffffffffffffffffffffffffffffffff169060200190929190505050610a02565b6040518082815260200191505060405180910390f35b34801561026857600080fd5b506102956004803603602081101561027f57600080fd5b8101908080359060200190929190505050610b3d565b005b3480156102a357600080fd5b506102e6600480360360208110156102ba57600080fd5b81019080803573ffffffffffffffffffffffffffffffffffffffff169060200190929190505050610d90565b005b3480156102f457600080fd5b506103376004803603602081101561030b57600080fd5b81019080803573ffffffffffffffffffffffffffffffffffffffff169060200190929190505050610f04565b005b610341611020565b005b34801561034f57600080fd5b506103906004803603606081101561036657600080fd5b8101908080359060200190929190803590602001909291908035906020019092919050505061135a565b005b6103d4600480360360208110156103a857600080fd5b81019080803573ffffffffffffffffffffffffffffffffffffffff169060200190929190505050611605565b005b3480156103e257600080fd5b50610425600480360360208110156103f957600080fd5b81019080803573ffffffffffffffffffffffffffffffffffffffff1690602001909291905050506120cc565b6040518082815260200191505060405180910390f35b34801561044757600080fd5b5061047e6004803603604081101561045e57600080fd5b810190808035906020019092919080359060200190929190505050612115565b005b34801561048c57600080fd5b506104b9600480360360208110156104a357600080fd5b81019080803590602001909291905050506122ec565b6040518082815260200191505060405180910390f35b3480156104db57600080fd5b5061051e600480360360208110156104f257600080fd5b81019080803573ffffffffffffffffffffffffffffffffffffffff169060200190929190505050612402565b6040518082815260200191505060405180910390f35b34801561054057600080fd5b506105836004803603602081101561055757600080fd5b81019080803573ffffffffffffffffffffffffffffffffffffffff16906020019092919050505061253d565b6040518082815260200191505060405180910390f35b3480156105a557600080fd5b506105e8600480360360208110156105bc57600080fd5b81019080803573ffffffffffffffffffffffffffffffffffffffff169060200190929190505050612678565b6040518082815260200191505060405180910390f35b34801561060a57600080fd5b506106136127b3565b005b61061d612a1c565b005b34801561062b57600080fd5b5061066e6004803603602081101561064257600080fd5b81019080803573ffffffffffffffffffffffffffffffffffffffff169060200190929190505050612a1e565b6040518082815260200191505060405180910390f35b34801561069057600080fd5b50610699612b59565b6040518082815260200191505060405180910390f35b3480156106bb57600080fd5b506106c4612b63565b005b3480156106d257600080fd5b50610715600480360360208110156106e957600080fd5b81019080803573ffffffffffffffffffffffffffffffffffffffff169060200190929190505050612bad565b6040518082815260200191505060405180910390f35b34801561073757600080fd5b5061077a6004803603602081101561074e57600080fd5b81019080803573ffffffffffffffffffffffffffffffffffffffff169060200190929190505050612bf6565b6040518082815260200191505060405180910390f35b6107bc600480360360208110156107a657600080fd5b8101908080359060200190929190505050612d31565b005b6107f4600480360360408110156107d457600080fd5b810190808035906020019092919080359060200190929190505050612fe9565b005b6107fe613668565b005b34801561080c57600080fd5b506108396004803603602081101561082357600080fd5b81019080803590602001909291905050506137b9565b005b34801561084757600080fd5b5061088a6004803603602081101561085e57600080fd5b81019080803573ffffffffffffffffffffffffffffffffffffffff169060200190929190505050613ab6565b6040518082815260200191505060405180910390f35b6108ec600480360360408110156108b657600080fd5b81019080803573ffffffffffffffffffffffffffffffffffffffff16906020019092919080359060200190929190505050613aff565b005b3480156108fa57600080fd5b50610903613eec565b005b6000600260003373ffffffffffffffffffffffffffffffffffffffff1673ffffffffffffffffffffffffffffffffffffffff1681526020019081526020016000205414156109bb576040517f08c379a00000000000000000000000000000000000000000000000000000000081526004018080602001828103825260178152602001807f4e65656420746f2072656769737465722066697273742100000000000000000081525060200191505060405180910390fd5b80600560003373ffffffffffffffffffffffffffffffffffffffff1673ffffffffffffffffffffffffffffffffffffffff1681526020019081526020016000208190555050565b6000601160405180807f56656e646f7200000000000000000000000000000000000000000000000000008152506006019050908152602001604051809103902054600260008473ffffffffffffffffffffffffffffffffffffffff1673ffffffffffffffffffffffffffffffffffffffff1681526020019081526020016000205414610af6576040517f08c379a000000000000000000000000000000000000000000000000000000000815260040180806020018281038252600d8152602001807f4e6f7420612076656e646f72210000000000000000000000000000000000000081525060200191505060405180910390fd5b600c60008373ffffffffffffffffffffffffffffffffffffffff1673ffffffffffffffffffffffffffffffffffffffff168152602001908152602001600020549050919050565b601160405180807f56656e646f7200000000000000000000000000000000000000000000000000008152506006019050908152602001604051809103902054600260003373ffffffffffffffffffffffffffffffffffffffff1673ffffffffffffffffffffffffffffffffffffffff1681526020019081526020016000205414610c2f576040517f08c379a000000000000000000000000000000000000000000000000000000000815260040180806020018281038252601a8152602001807f4f6e6c792076656e646f72732063616e2077697468647261772100000000000081525060200191505060405180910390fd5b610c3833613eee565b610caa576040517f08c379a000000000000000000000000000000000000000000000000000000000815260040180806020018281038252600f8152602001807f496e76616c69642076656e646f7221000000000000000000000000000000000081525060200191505060405180910390fd5b3373ffffffffffffffffffffffffffffffffffffffff16600f600083815260200190815260200160002060009054906101000a900473ffffffffffffffffffffffffffffffffffffffff1673ffffffffffffffffffffffffffffffffffffffff1614610d61576040517f08c379a000000000000000000000000000000000000000000000000000000000815260040180806020018281038252602c815260200180614117602c913960400191505060405180910390fd5b60006010600083815260200190815260200160002060006101000a81548160ff02191690831515021790555050565b60008054906101000a900473ffffffffffffffffffffffffffffffffffffffff1673ffffffffffffffffffffffffffffffffffffffff163373ffffffffffffffffffffffffffffffffffffffff1614610e51576040517f08c379a00000000000000000000000000000000000000000000000000000000081526004018080602001828103825260188152602001807f41646d696e207065726d697373696f6e2064656e6965642e000000000000000081525060200191505060405180910390fd5b6001600460008373ffffffffffffffffffffffffffffffffffffffff1673ffffffffffffffffffffffffffffffffffffffff16815260200190815260200160002060006101000a81548160ff0219169083151502179055506000600360008373ffffffffffffffffffffffffffffffffffffffff1673ffffffffffffffffffffffffffffffffffffffff16815260200190815260200160002060006101000a81548160ff02191690831515021790555050565b60008054906101000a900473ffffffffffffffffffffffffffffffffffffffff1673ffffffffffffffffffffffffffffffffffffffff163373ffffffffffffffffffffffffffffffffffffffff1614610fc5576040517f08c379a00000000000000000000000000000000000000000000000000000000081526004018080602001828103825260188152602001807f41646d696e207065726d697373696f6e2064656e6965642e000000000000000081525060200191505060405180910390fd5b6000600460008373ffffffffffffffffffffffffffffffffffffffff1673ffffffffffffffffffffffffffffffffffffffff16815260200190815260200160002060006101000a81548160ff02191690831515021790555050565b6000600260003373ffffffffffffffffffffffffffffffffffffffff1673ffffffffffffffffffffffffffffffffffffffff1681526020019081526020016000205414156110d6576040517f08c379a00000000000000000000000000000000000000000000000000000000081526004018080602001828103825260178152602001807f4e65656420746f2072656769737465722066697273742100000000000000000081525060200191505060405180910390fd5b60136012600260003373ffffffffffffffffffffffffffffffffffffffff1673ffffffffffffffffffffffffffffffffffffffff168152602001908152602001600020548154811061112457fe5b9060005260206000200160405180828054600181600116156101000203166002900480156111895780601f10611167576101008083540402835291820191611189565b820191906000526020600020905b815481529060010190602001808311611175575b505091505090815260200160405180910390205434600660003373ffffffffffffffffffffffffffffffffffffffff1673ffffffffffffffffffffffffffffffffffffffff168152602001908152602001600020540111611235576040517f08c379a000000000000000000000000000000000000000000000000000000000815260040180806020018281038252602781526020018061400c6027913960400191505060405180910390fd5b601160405180807f446f6e6f720000000000000000000000000000000000000000000000000000008152506005019050908152602001604051809103902054600260003373ffffffffffffffffffffffffffffffffffffffff1673ffffffffffffffffffffffffffffffffffffffff16815260200190815260200160002054141561130b576040517f08c379a0000000000000000000000000000000000000000000000000000000008152600401808060200182810382526023815260200180613fe96023913960400191505060405180910390fd5b34600660003373ffffffffffffffffffffffffffffffffffffffff1673ffffffffffffffffffffffffffffffffffffffff16815260200190815260200160002060008282540192505081905550565b601160405180807f56656e646f7200000000000000000000000000000000000000000000000000008152506006019050908152602001604051809103902054600260003373ffffffffffffffffffffffffffffffffffffffff1673ffffffffffffffffffffffffffffffffffffffff168152602001908152602001600020541461144c576040517f08c379a000000000000000000000000000000000000000000000000000000000815260040180806020018281038252601a8152602001807f4f6e6c792076656e646f72732063616e2077697468647261772100000000000081525060200191505060405180910390fd5b61145533613eee565b6114c7576040517f08c379a000000000000000000000000000000000000000000000000000000000815260040180806020018281038252600f8152602001807f496e76616c69642076656e646f7221000000000000000000000000000000000081525060200191505060405180910390fd5b6000801b600e60008581526020019081526020016000205414611552576040517f08c379a00000000000000000000000000000000000000000000000000000000081526004018080602001828103825260148152602001807f476f6f64735f6e756d626572206578697374732e00000000000000000000000081525060200191505060405180910390fd5b81600d60008581526020019081526020016000208190555080600e60008581526020019081526020016000208190555033600f600085815260200190815260200160002060006101000a81548173ffffffffffffffffffffffffffffffffffffffff021916908373ffffffffffffffffffffffffffffffffffffffff16021790555060016010600085815260200190815260200160002060006101000a81548160ff021916908315150217905550505050565b61160e33613eee565b611680576040517f08c379a000000000000000000000000000000000000000000000000000000000815260040180806020018281038252600f8152602001807f496e76616c69642073656e64657221000000000000000000000000000000000081525060200191505060405180910390fd5b61168981613eee565b6116fb576040517f08c379a00000000000000000000000000000000000000000000000000000000081526004018080602001828103825260118152602001807f496e76616c69642072656365697665722100000000000000000000000000000081525060200191505060405180910390fd5b6000600260008373ffffffffffffffffffffffffffffffffffffffff1673ffffffffffffffffffffffffffffffffffffffff1681526020019081526020016000205414156117b1576040517f08c379a00000000000000000000000000000000000000000000000000000000081526004018080602001828103825260168152602001807f556e72656769737465726564207265636569766572210000000000000000000081525060200191505060405180910390fd5b601160405180807f446f6e6f720000000000000000000000000000000000000000000000000000008152506005019050908152602001604051809103902054600260003373ffffffffffffffffffffffffffffffffffffffff1673ffffffffffffffffffffffffffffffffffffffff16815260200190815260200160002054146118a3576040517f08c379a00000000000000000000000000000000000000000000000000000000081526004018080602001828103825260178152602001807f4f6e6c7920646f6e6f72732063616e20646f6e6174652100000000000000000081525060200191505060405180910390fd5b601160405180807f446f6e6f720000000000000000000000000000000000000000000000000000008152506005019050908152602001604051809103902054600260008373ffffffffffffffffffffffffffffffffffffffff1673ffffffffffffffffffffffffffffffffffffffff168152602001908152602001600020541415611979576040517f08c379a00000000000000000000000000000000000000000000000000000000081526004018080602001828103825260228152602001806140f56022913960400191505060405180910390fd5b601160405180807f56656e646f7200000000000000000000000000000000000000000000000000008152506006019050908152602001604051809103902054600260008373ffffffffffffffffffffffffffffffffffffffff1673ffffffffffffffffffffffffffffffffffffffff168152602001908152602001600020541415611a4f576040517f08c379a000000000000000000000000000000000000000000000000000000000815260040180806020018281038252602381526020018061407c6023913960400191505060405180910390fd5b60003411611ac5576040517f08c379a00000000000000000000000000000000000000000000000000000000081526004018080602001828103825260118152602001807f496e76616c696420646f6e6174696f6e2100000000000000000000000000000081525060200191505060405180910390fd5b601160405180807f526563697069656e7400000000000000000000000000000000000000000000008152506009019050908152602001604051809103902054600260008373ffffffffffffffffffffffffffffffffffffffff1673ffffffffffffffffffffffffffffffffffffffff168152602001908152602001600020541415611be3578073ffffffffffffffffffffffffffffffffffffffff166108fc349081150290604051600060405180830381858888f19350505050158015611b90573d6000803e3d6000fd5b5034600760003373ffffffffffffffffffffffffffffffffffffffff1673ffffffffffffffffffffffffffffffffffffffff168152602001908152602001600020600082825401925050819055506120c9565b601160405180807f4e504f00000000000000000000000000000000000000000000000000000000008152506003019050908152602001604051809103902054600260008373ffffffffffffffffffffffffffffffffffffffff1673ffffffffffffffffffffffffffffffffffffffff168152602001908152602001600020541415611d075734600860008373ffffffffffffffffffffffffffffffffffffffff1673ffffffffffffffffffffffffffffffffffffffff1681526020019081526020016000206000828254019250508190555034600760003373ffffffffffffffffffffffffffffffffffffffff1673ffffffffffffffffffffffffffffffffffffffff168152602001908152602001600020600082825401925050819055506120c8565b601160405180807f43726f776446756e6400000000000000000000000000000000000000000000008152506009019050908152602001604051809103902054600260008373ffffffffffffffffffffffffffffffffffffffff1673ffffffffffffffffffffffffffffffffffffffff1681526020019081526020016000205414156120c757600b60008273ffffffffffffffffffffffffffffffffffffffff1673ffffffffffffffffffffffffffffffffffffffff16815260200190815260200160002054600a60008373ffffffffffffffffffffffffffffffffffffffff1673ffffffffffffffffffffffffffffffffffffffff1681526020019081526020016000205410611e7f576040517f08c379a000000000000000000000000000000000000000000000000000000000815260040180806020018281038252601a8152602001807f446f6e6174696f6e2074617267657420636f6d706c657465642100000000000081525060200191505060405180910390fd5b6000600a60008373ffffffffffffffffffffffffffffffffffffffff1673ffffffffffffffffffffffffffffffffffffffff16815260200190815260200160002054600b60008473ffffffffffffffffffffffffffffffffffffffff1673ffffffffffffffffffffffffffffffffffffffff168152602001908152602001600020540390508034111561202a573373ffffffffffffffffffffffffffffffffffffffff166108fc8234039081150290604051600060405180830381858888f19350505050158015611f54573d6000803e3d6000fd5b50600b60008373ffffffffffffffffffffffffffffffffffffffff1673ffffffffffffffffffffffffffffffffffffffff16815260200190815260200160002054600a60008473ffffffffffffffffffffffffffffffffffffffff1673ffffffffffffffffffffffffffffffffffffffff1681526020019081526020016000208190555080600760003373ffffffffffffffffffffffffffffffffffffffff1673ffffffffffffffffffffffffffffffffffffffff168152602001908152602001600020600082825401925050819055506120c5565b34600a60008473ffffffffffffffffffffffffffffffffffffffff1673ffffffffffffffffffffffffffffffffffffffff1681526020019081526020016000206000828254019250508190555034600760003373ffffffffffffffffffffffffffffffffffffffff1673ffffffffffffffffffffffffffffffffffffffff168152602001908152602001600020600082825401925050819055505b505b5b5b50565b6000600260008373ffffffffffffffffffffffffffffffffffffffff1673ffffffffffffffffffffffffffffffffffffffff168152602001908152602001600020549050919050565b60008054906101000a900473ffffffffffffffffffffffffffffffffffffffff1673ffffffffffffffffffffffffffffffffffffffff163373ffffffffffffffffffffffffffffffffffffffff16146121d6576040517f08c379a00000000000000000000000000000000000000000000000000000000081526004018080602001828103825260188152602001807f41646d696e207065726d697373696f6e2064656e6965642e000000000000000081525060200191505060405180910390fd5b6000821180156121ea575060128054905082105b61225c576040517f08c379a00000000000000000000000000000000000000000000000000000000081526004018080602001828103825260108152602001807f496e76616c696420747970655f6964210000000000000000000000000000000081525060200191505060405180910390fd5b8060136012848154811061226c57fe5b9060005260206000200160405180828054600181600116156101000203166002900480156122d15780601f106122af5761010080835404028352918201916122d1565b820191906000526020600020905b8154815290600101906020018083116122bd575b50509150509081526020016040518091039020819055505050565b60008082118015612301575060128054905082105b612373576040517f08c379a00000000000000000000000000000000000000000000000000000000081526004018080602001828103825260108152602001807f496e76616c696420747970655f6964210000000000000000000000000000000081525060200191505060405180910390fd5b60136012838154811061238257fe5b9060005260206000200160405180828054600181600116156101000203166002900480156123e75780601f106123c55761010080835404028352918201916123e7565b820191906000526020600020905b8154815290600101906020018083116123d3575b50509150509081526020016040518091039020549050919050565b6000601160405180807f446f6e6f720000000000000000000000000000000000000000000000000000008152506005019050908152602001604051809103902054600260008473ffffffffffffffffffffffffffffffffffffffff1673ffffffffffffffffffffffffffffffffffffffff16815260200190815260200160002054146124f6576040517f08c379a000000000000000000000000000000000000000000000000000000000815260040180806020018281038252600c8152602001807f4e6f74206120646f6e6f7221000000000000000000000000000000000000000081525060200191505060405180910390fd5b600760008373ffffffffffffffffffffffffffffffffffffffff1673ffffffffffffffffffffffffffffffffffffffff168152602001908152602001600020549050919050565b6000601160405180807f43726f776446756e6400000000000000000000000000000000000000000000008152506009019050908152602001604051809103902054600260008473ffffffffffffffffffffffffffffffffffffffff1673ffffffffffffffffffffffffffffffffffffffff1681526020019081526020016000205414612631576040517f08c379a00000000000000000000000000000000000000000000000000000000081526004018080602001828103825260108152602001807f4e6f7420612063726f776466756e64210000000000000000000000000000000081525060200191505060405180910390fd5b600b60008373ffffffffffffffffffffffffffffffffffffffff1673ffffffffffffffffffffffffffffffffffffffff168152602001908152602001600020549050919050565b6000601160405180807f4e504f00000000000000000000000000000000000000000000000000000000008152506003019050908152602001604051809103902054600260008473ffffffffffffffffffffffffffffffffffffffff1673ffffffffffffffffffffffffffffffffffffffff168152602001908152602001600020541461276c576040517f08c379a000000000000000000000000000000000000000000000000000000000815260040180806020018281038252600b8152602001807f4e6f7420616e204e504f2100000000000000000000000000000000000000000081525060200191505060405180910390fd5b600860008373ffffffffffffffffffffffffffffffffffffffff1673ffffffffffffffffffffffffffffffffffffffff168152602001908152602001600020549050919050565b6127bc33613f44565b15612812576040517f08c379a00000000000000000000000000000000000000000000000000000000081526004018080602001828103825260238152602001806140336023913960400191505060405180910390fd5b61281b33613eee565b15612871576040517f08c379a00000000000000000000000000000000000000000000000000000000081526004018080602001828103825260268152602001806140566026913960400191505060405180910390fd5b6000600660003373ffffffffffffffffffffffffffffffffffffffff1673ffffffffffffffffffffffffffffffffffffffff168152602001908152602001600020541415612927576040517f08c379a000000000000000000000000000000000000000000000000000000000815260040180806020018281038252601f8152602001807f4e656564207374616b696e67206265666f72652076616c69646174696f6e2e0081525060200191505060405180910390fd5b6000801b600560003373ffffffffffffffffffffffffffffffffffffffff1673ffffffffffffffffffffffffffffffffffffffff1681526020019081526020016000205414156129c2576040517f08c379a0000000000000000000000000000000000000000000000000000000008152600401808060200182810382526023815260200180613f9b6023913960400191505060405180910390fd5b6001600360003373ffffffffffffffffffffffffffffffffffffffff1673ffffffffffffffffffffffffffffffffffffffff16815260200190815260200160002060006101000a81548160ff021916908315150217905550565b565b6000601160405180807f43726f776446756e6400000000000000000000000000000000000000000000008152506009019050908152602001604051809103902054600260008473ffffffffffffffffffffffffffffffffffffffff1673ffffffffffffffffffffffffffffffffffffffff1681526020019081526020016000205414612b12576040517f08c379a00000000000000000000000000000000000000000000000000000000081526004018080602001828103825260108152602001807f4e6f7420612063726f776466756e64210000000000000000000000000000000081525060200191505060405180910390fd5b600a60008373ffffffffffffffffffffffffffffffffffffffff1673ffffffffffffffffffffffffffffffffffffffff168152602001908152602001600020549050919050565b6000600154905090565b612bab600c60003373ffffffffffffffffffffffffffffffffffffffff1673ffffffffffffffffffffffffffffffffffffffff16815260200190815260200160002054612d31565b565b6000600560008373ffffffffffffffffffffffffffffffffffffffff1673ffffffffffffffffffffffffffffffffffffffff168152602001908152602001600020549050919050565b6000601160405180807f526563697069656e7400000000000000000000000000000000000000000000008152506009019050908152602001604051809103902054600260008473ffffffffffffffffffffffffffffffffffffffff1673ffffffffffffffffffffffffffffffffffffffff1681526020019081526020016000205414612cea576040517f08c379a00000000000000000000000000000000000000000000000000000000081526004018080602001828103825260108152602001807f4e6f74206120726563697069656e74210000000000000000000000000000000081525060200191505060405180910390fd5b600960008373ffffffffffffffffffffffffffffffffffffffff1673ffffffffffffffffffffffffffffffffffffffff168152602001908152602001600020549050919050565b601160405180807f56656e646f7200000000000000000000000000000000000000000000000000008152506006019050908152602001604051809103902054600260003373ffffffffffffffffffffffffffffffffffffffff1673ffffffffffffffffffffffffffffffffffffffff1681526020019081526020016000205414612e23576040517f08c379a000000000000000000000000000000000000000000000000000000000815260040180806020018281038252601a8152602001807f4f6e6c792076656e646f72732063616e2077697468647261772100000000000081525060200191505060405180910390fd5b612e2c33613eee565b612e9e576040517f08c379a000000000000000000000000000000000000000000000000000000000815260040180806020018281038252600f8152602001807f496e76616c69642076656e646f7221000000000000000000000000000000000081525060200191505060405180910390fd5b80600c60003373ffffffffffffffffffffffffffffffffffffffff1673ffffffffffffffffffffffffffffffffffffffff1681526020019081526020016000205411612f52576040517f08c379a00000000000000000000000000000000000000000000000000000000081526004018080602001828103825260148152602001807f556e737566666369656e742062616c616e63652100000000000000000000000081525060200191505060405180910390fd5b80600c60003373ffffffffffffffffffffffffffffffffffffffff1673ffffffffffffffffffffffffffffffffffffffff168152602001908152602001600020600082825403925050819055503373ffffffffffffffffffffffffffffffffffffffff166108fc829081150290604051600060405180830381858888f19350505050158015612fe5573d6000803e3d6000fd5b5050565b612ff233613eee565b613064576040517f08c379a000000000000000000000000000000000000000000000000000000000815260040180806020018281038252600f8152602001807f496e76616c69642073656e64657221000000000000000000000000000000000081525060200191505060405180910390fd5b601160405180807f526563697069656e7400000000000000000000000000000000000000000000008152506009019050908152602001604051809103902054600260003373ffffffffffffffffffffffffffffffffffffffff1673ffffffffffffffffffffffffffffffffffffffff16815260200190815260200160002054148061316b5750601160405180807f4e504f00000000000000000000000000000000000000000000000000000000008152506003019050908152602001604051809103902054600260003373ffffffffffffffffffffffffffffffffffffffff1673ffffffffffffffffffffffffffffffffffffffff16815260200190815260200160002054145b6131c0576040517f08c379a00000000000000000000000000000000000000000000000000000000081526004018080602001828103825260348152602001806140c16034913960400191505060405180910390fd5b6010600083815260200190815260200160002060009054906101000a900460ff16613253576040517f08c379a000000000000000000000000000000000000000000000000000000000815260040180806020018281038252600e8152602001807f496e76616c696420676f6f64732e00000000000000000000000000000000000081525060200191505060405180910390fd5b601160405180807f526563697069656e7400000000000000000000000000000000000000000000008152506009019050908152602001604051809103902054600260003373ffffffffffffffffffffffffffffffffffffffff1673ffffffffffffffffffffffffffffffffffffffff16815260200190815260200160002054141561345b5780600d60008481526020019081526020016000205402341015613363576040517f08c379a00000000000000000000000000000000000000000000000000000000081526004018080602001828103825260128152602001807f4e6f7420656e6f75676820746f6b656e732e000000000000000000000000000081525060200191505060405180910390fd5b80600d60008481526020019081526020016000205402600c6000600f600086815260200190815260200160002060009054906101000a900473ffffffffffffffffffffffffffffffffffffffff1673ffffffffffffffffffffffffffffffffffffffff1673ffffffffffffffffffffffffffffffffffffffff168152602001908152602001600020600082825401925050819055503373ffffffffffffffffffffffffffffffffffffffff166108fc82600d6000868152602001908152602001600020540234039081150290604051600060405180830381858888f19350505050158015613455573d6000803e3d6000fd5b50613664565b80600d60008481526020019081526020016000205402600860003373ffffffffffffffffffffffffffffffffffffffff1673ffffffffffffffffffffffffffffffffffffffff168152602001908152602001600020541015613525576040517f08c379a00000000000000000000000000000000000000000000000000000000081526004018080602001828103825260208152602001807f496e737566666369656e74204e504f277320646f6e6174696f6e20706f6f6c2e81525060200191505060405180910390fd5b80600d60008481526020019081526020016000205402600860003373ffffffffffffffffffffffffffffffffffffffff1673ffffffffffffffffffffffffffffffffffffffff1681526020019081526020016000206000828254039250508190555080600d60008481526020019081526020016000205402600c6000600f600086815260200190815260200160002060009054906101000a900473ffffffffffffffffffffffffffffffffffffffff1673ffffffffffffffffffffffffffffffffffffffff1673ffffffffffffffffffffffffffffffffffffffff168152602001908152602001600020600082825401925050819055503373ffffffffffffffffffffffffffffffffffffffff166108fc349081150290604051600060405180830381858888f19350505050158015613662573d6000803e3d6000fd5b505b5050565b601160405180807f446f6e6f720000000000000000000000000000000000000000000000000000008152506005019050908152602001604051809103902054600260003373ffffffffffffffffffffffffffffffffffffffff1673ffffffffffffffffffffffffffffffffffffffff168152602001908152602001600020541461375a576040517f08c379a00000000000000000000000000000000000000000000000000000000081526004018080602001828103825260178152602001807f4f6e6c7920646f6e6f72732063616e20646f6e6174652100000000000000000081525060200191505060405180910390fd5b3460016000828254019250508190555034600760003373ffffffffffffffffffffffffffffffffffffffff1673ffffffffffffffffffffffffffffffffffffffff16815260200190815260200160002060008282540192505081905550565b6000600260003373ffffffffffffffffffffffffffffffffffffffff1673ffffffffffffffffffffffffffffffffffffffff168152602001908152602001600020541461386e576040517f08c379a00000000000000000000000000000000000000000000000000000000081526004018080602001828103825260158152602001807f43616e277420726567697374657220747769636521000000000000000000000081525060200191505060405180910390fd5b600081118015613882575060128054905081105b6138f4576040517f08c379a00000000000000000000000000000000000000000000000000000000081526004018080602001828103825260108152602001807f496e76616c696420747970655f6964210000000000000000000000000000000081525060200191505060405180910390fd5b80600260003373ffffffffffffffffffffffffffffffffffffffff1673ffffffffffffffffffffffffffffffffffffffff168152602001908152602001600020819055506000600360003373ffffffffffffffffffffffffffffffffffffffff1673ffffffffffffffffffffffffffffffffffffffff16815260200190815260200160002060006101000a81548160ff0219169083151502179055506000600660003373ffffffffffffffffffffffffffffffffffffffff1673ffffffffffffffffffffffffffffffffffffffff16815260200190815260200160002081905550601160405180807f446f6e6f720000000000000000000000000000000000000000000000000000008152506005019050908152602001604051809103902054600260003373ffffffffffffffffffffffffffffffffffffffff1673ffffffffffffffffffffffffffffffffffffffff168152602001908152602001600020541415613ab3576001600360003373ffffffffffffffffffffffffffffffffffffffff1673ffffffffffffffffffffffffffffffffffffffff16815260200190815260200160002060006101000a81548160ff0219169083151502179055505b50565b6000600660008373ffffffffffffffffffffffffffffffffffffffff1673ffffffffffffffffffffffffffffffffffffffff168152602001908152602001600020549050919050565b613b0833613eee565b613b7a576040517f08c379a000000000000000000000000000000000000000000000000000000000815260040180806020018281038252600f8152602001807f496e76616c69642073656e64657221000000000000000000000000000000000081525060200191505060405180910390fd5b613b8382613eee565b613bf5576040517f08c379a00000000000000000000000000000000000000000000000000000000081526004018080602001828103825260118152602001807f496e76616c69642072656365697665722100000000000000000000000000000081525060200191505060405180910390fd5b601160405180807f4e504f00000000000000000000000000000000000000000000000000000000008152506003019050908152602001604051809103902054600260003373ffffffffffffffffffffffffffffffffffffffff1673ffffffffffffffffffffffffffffffffffffffff1681526020019081526020016000205414613cca576040517f08c379a000000000000000000000000000000000000000000000000000000000815260040180806020018281038252602b815260200180613fbe602b913960400191505060405180910390fd5b601160405180807f526563697069656e7400000000000000000000000000000000000000000000008152506009019050908152602001604051809103902054600260008473ffffffffffffffffffffffffffffffffffffffff1673ffffffffffffffffffffffffffffffffffffffff1681526020019081526020016000205414613d9f576040517f08c379a000000000000000000000000000000000000000000000000000000000815260040180806020018281038252602281526020018061409f6022913960400191505060405180910390fd5b80600860003373ffffffffffffffffffffffffffffffffffffffff1673ffffffffffffffffffffffffffffffffffffffff168152602001908152602001600020541015613e54576040517f08c379a00000000000000000000000000000000000000000000000000000000081526004018080602001828103825260208152602001807f496e737566666369656e74204e504f277320646f6e6174696f6e20706f6f6c2e81525060200191505060405180910390fd5b80600860003373ffffffffffffffffffffffffffffffffffffffff1673ffffffffffffffffffffffffffffffffffffffff168152602001908152602001600020600082825403925050819055508173ffffffffffffffffffffffffffffffffffffffff166108fc829081150290604051600060405180830381858888f19350505050158015613ee7573d6000803e3d6000fd5b505050565b565b6000600360008373ffffffffffffffffffffffffffffffffffffffff1673ffffffffffffffffffffffffffffffffffffffff16815260200190815260200160002060009054906101000a900460ff169050919050565b6000600460008373ffffffffffffffffffffffffffffffffffffffff1673ffffffffffffffffffffffffffffffffffffffff16815260200190815260200160002060009054906101000a900460ff16905091905056fe4e656564206465736372697074696f6e206265666f72652076616c69646174696f6e2e4f6e6c79204e504f732063616e2072656469737472696275746520746865697220646f6e6174696f6e73215374616b696e67206973206e6f74206176616c6961626c6520666f7220646f6e6f722e496e73756666696369656e74207374616b696e672e204e656564206d6f726520746f6b656e73214c6f636b656420616464726573732c2063616e27742062652076616c696461746564214f6e6c7920696e76616c696420616464726573732063616e2062652076616c696461746564214f6e6c79204e4f542076656e646f72732063616e20626520646f6e6174656420746f214f6e6c7920726563697069656e74732063616e20626520646f6e6174656420746f214f6e6c7920726563697069656e747320616e64204e504f732063616e2062757920676f6f64732066726f6d2076656e646f7273214f6e6c79204e4f5420646f6e6f72732063616e20626520646f6e6174656420746f2143616e27742063616e63656c20676f6f6473207468617420646f6e27742062656c6f6e6720746f20796f752ea264697066735822122043095c071b214416dc6daf645f80c1c20ebf816bf122b9ea75e5b7d7eed6ea9864736f6c63430007030033",
  "immutableReferences": {},
  "source": "pragma solidity >=0.5.0;\r\n\r\ncontract ProjectX {\r\n    // admin records\r\n    address project_admin;\r\n    uint256 admin_donation_pool;\r\n    \r\n    // Unit informations\r\n    mapping (address => uint) private types;\r\n    mapping (address => bool) private validations;\r\n    mapping (address => bool) private lock;               // admin lock control\r\n    mapping (address => bytes32) private descriptions;    // sha256( description )\r\n\r\n    // global records\r\n    mapping (address => uint256) private staking_fund;\r\n    mapping (address => uint256) private donation_record;\r\n    mapping (address => uint256) private NPO_donation_pool;\r\n    mapping (address => uint256) private Recipient_donation_pool;\r\n    mapping (address => uint256) private CrowdFund_donation_pool;\r\n    mapping (address => uint256) private CrowdFund_donation_target;\r\n    mapping (address => uint256) private Vendor_pool;\r\n    mapping (uint256 => uint256) private goods_price;     // goods_number to goods_price\r\n    mapping (uint256 => bytes32) private goods_description;\r\n    mapping (uint256 => address) private goods_providing_vendor;\r\n    mapping (uint256 => bool) private goods_valid;\r\n    \r\n    // type info\r\n    mapping (string => uint) private type_map;\r\n    string[] private type_list = [\"default\", \"Donor\", \"NPO\", \"Recipient\", \"CrowdFund\", \"Vendor\"];\r\n    mapping (string => uint256) private staking_price;\r\n\r\n    // initialization\r\n    constructor() {\r\n        // admin settings\r\n        project_admin = msg.sender;\r\n        admin_donation_pool = 0;\r\n\r\n        // type settings\r\n        for(uint i = 1; i < type_list.length; i++){\r\n            type_map[ type_list[i] ] = i;\r\n        }\r\n\r\n        // staking price initializaions\r\n        staking_price[\"Recipient\"] = 23 * 1e18;\r\n        staking_price[\"NPO\"] = 233 * 1e18;\r\n        staking_price[\"Vendor\"] = 666 * 1e18;\r\n        staking_price[\"CrowdFund\"] = 2333 * 1e18;\r\n    }\r\n    \r\n    function register(uint type_id) public {\r\n        require(types[msg.sender] == uint(0x0), \"Can't register twice!\");\r\n        require(type_id > 0 && type_id < type_list.length, \"Invalid type_id!\");\r\n        \r\n        // register basic infos\r\n        types[msg.sender] = type_id;\r\n        validations[msg.sender] = false;\r\n        staking_fund[msg.sender] = 0;\r\n\r\n        // Donors is valid by default.\r\n        if(types[msg.sender] == type_map[\"Donor\"]){\r\n            validations[msg.sender] = true;\r\n        }\r\n    }\r\n    \r\n    // staking to ensure safety\r\n    function stake() public payable {\r\n        require(types[msg.sender] != uint(0x0), \"Need to register first!\");\r\n        \r\n        // One can stake as many times as one wants.\r\n        // // require(staking_fund[msg.sender] == 0, \"Only unstaked address can be staked!\");\r\n\r\n        // But each staking must abide by the following rule\r\n        require(staking_fund[msg.sender] + msg.value > staking_price[ type_list[ types[msg.sender] ] ], \"Insufficient staking. Need more tokens!\");\r\n        \r\n        require(types[msg.sender] != type_map[\"Donor\"], \"Staking is not avaliable for donor.\");\r\n\r\n        // Theoretically one can staking whatever one wants\r\n        // as long as it's higer than the lowerbound \"staking_price\"\r\n        // TODO: This can be used in reputation system to evaluate reputation scores\r\n        staking_fund[msg.sender] += msg.value;\r\n    }\r\n    \r\n    // describe an adress's purpose\r\n    function describe(bytes32 encripted_description_hash) public {\r\n        require(types[msg.sender] != uint(0x0), \"Need to register first!\");\r\n\r\n        descriptions[msg.sender] = encripted_description_hash;\r\n    }\r\n\r\n    // validate an address\r\n    function validate() public {\r\n        require(!is_locked(msg.sender), \"Locked address, can't be validated!\");\r\n        require(!is_valid(msg.sender), \"Only invalid address can be validated!\");\r\n        require(staking_fund[msg.sender] != 0, \"Need staking before validation.\");\r\n        require(descriptions[msg.sender] != bytes32(0x0), \"Need description before validation.\");\r\n        \r\n        // TODO: branches to be designed\r\n        validations[msg.sender] = true;\r\n    }\r\n    \r\n    // donation to the contract\r\n    function donate() public payable {\r\n        require(types[msg.sender] == type_map[\"Donor\"], \"Only donors can donate!\");\r\n        // require(msg.value > 0, \"Invalid donation!\");\r\n        admin_donation_pool += msg.value;\r\n        donation_record[msg.sender] += msg.value;\r\n    }\r\n    \r\n    // p2p donation\r\n    function donate_to(address payable receiver) public payable {\r\n        require(is_valid(msg.sender), \"Invalid sender!\");\r\n        require(is_valid(receiver), \"Invalid receiver!\");\r\n\r\n        require(types[receiver] != uint(0x0), \"Unregistered receiver!\");\r\n        require(types[msg.sender] == type_map[\"Donor\"], \"Only donors can donate!\");\r\n        require(types[receiver] != type_map[\"Donor\"], \"Only NOT donors can be donated to!\");\r\n        require(types[receiver] != type_map[\"Vendor\"], \"Only NOT vendors can be donated to!\");\r\n\r\n        require(msg.value > 0, \"Invalid donation!\");\r\n\r\n        // Seperate situations\r\n        if(types[receiver] == type_map[\"Recipient\"]){\r\n            // support transferring directly from sender to receiver\r\n            \r\n            //Recipient_donation_pool[receiver] += msg.value;\r\n            receiver.transfer(msg.value);\r\n            donation_record[msg.sender] += msg.value;\r\n        }\r\n        else if(types[receiver] == type_map[\"NPO\"]){\r\n            NPO_donation_pool[receiver] += msg.value;\r\n            donation_record[msg.sender] += msg.value;\r\n        }\r\n        else if(types[receiver] == type_map[\"CrowdFund\"]){\r\n            require(CrowdFund_donation_pool[receiver] < CrowdFund_donation_target[receiver], \"Donation target completed!\");\r\n            uint256 lim = CrowdFund_donation_target[receiver] - CrowdFund_donation_pool[receiver];\r\n            if(msg.value > lim){\r\n                // refund the overflowed donations\r\n                msg.sender.transfer(msg.value - lim);\r\n                CrowdFund_donation_pool[receiver] = CrowdFund_donation_target[receiver];\r\n                donation_record[msg.sender] += lim;\r\n            } else{\r\n                CrowdFund_donation_pool[receiver] += msg.value;\r\n                donation_record[msg.sender] += msg.value;\r\n            }\r\n        }\r\n        \r\n    }\r\n\r\n    // Buy all kinds of goods from vendors\r\n    function buy_goods(uint256 goods_number, uint quantity) public payable {\r\n        require(is_valid(msg.sender), \"Invalid sender!\");\r\n        require(types[msg.sender] == type_map[\"Recipient\"] || types[msg.sender] == type_map[\"NPO\"], \"Only recipients and NPOs can buy goods from vendors!\");\r\n        require(goods_valid[goods_number], \"Invalid goods.\");\r\n\r\n        if(types[msg.sender] == type_map[\"Recipient\"]){\r\n            require(msg.value >= goods_price[goods_number] * quantity, \"Not enough tokens.\");\r\n\r\n            Vendor_pool[ goods_providing_vendor[goods_number] ] += goods_price[goods_number] * quantity;\r\n            // refund the overflows\r\n            msg.sender.transfer(msg.value - goods_price[goods_number] * quantity);\r\n        } else{\r\n            require(NPO_donation_pool[msg.sender] >= goods_price[goods_number] * quantity, \"Insuffcient NPO's donation pool.\");\r\n            NPO_donation_pool[msg.sender] -= goods_price[goods_number] * quantity;\r\n            Vendor_pool[ goods_providing_vendor[goods_number] ] += goods_price[goods_number] * quantity;\r\n            // refund misprovided CFXs (if there are any)\r\n            msg.sender.transfer(msg.value);\r\n        }\r\n    }\r\n\r\n    // Only NPO to Recipient\r\n    // all amount'unit is Drip\r\n    function distribute(address payable receiver, uint256 amount) public payable {\r\n        require(is_valid(msg.sender), \"Invalid sender!\");\r\n        require(is_valid(receiver), \"Invalid receiver!\");\r\n\r\n        require(types[msg.sender] == type_map[\"NPO\"], \"Only NPOs can redistribute their donations!\");\r\n        require(types[receiver] == type_map[\"Recipient\"], \"Only recipients can be donated to!\");\r\n\r\n        require(NPO_donation_pool[msg.sender] >= amount, \"Insuffcient NPO's donation pool.\");\r\n        \r\n        NPO_donation_pool[msg.sender] -= amount;\r\n        // Another direct transferring, it's out of the system\r\n        receiver.transfer(amount);\r\n    }\r\n    \r\n    // Only vendors can register goods\r\n    function vendor_register_goods(uint256 goods_number, uint256 price, bytes32 description) public{\r\n        require(types[msg.sender] == type_map[\"Vendor\"], \"Only vendors can withdraw!\");\r\n        require(is_valid(msg.sender), \"Invalid vendor!\");\r\n        require(goods_description[goods_number] == bytes32(0x0), \"Goods_number exists.\");\r\n\r\n        goods_price[goods_number] = price;  // unit is Drip\r\n        goods_description[goods_number] = description;\r\n        goods_providing_vendor[goods_number] = msg.sender;\r\n        goods_valid[goods_number] = true;\r\n    }\r\n    // Only vendors can cancel goods\r\n    function vendor_cancel_goods(uint256 goods_number) public{\r\n        require(types[msg.sender] == type_map[\"Vendor\"], \"Only vendors can withdraw!\");\r\n        require(is_valid(msg.sender), \"Invalid vendor!\");\r\n        require(goods_providing_vendor[goods_number] == msg.sender, \"Can't cancel goods that don't belong to you.\");\r\n\r\n        goods_valid[goods_number] = false;\r\n    }\r\n\r\n    // Only vendors can cash out\r\n    function vendor_withdraw(uint256 amount) public payable {\r\n        require(types[msg.sender] == type_map[\"Vendor\"], \"Only vendors can withdraw!\");\r\n        require(is_valid(msg.sender), \"Invalid vendor!\");\r\n        require(Vendor_pool[msg.sender] > amount, \"Unsuffcient balance!\");\r\n\r\n        Vendor_pool[msg.sender] -= amount;\r\n        msg.sender.transfer(amount);\r\n    }\r\n\r\n    // cash out all the tokens\r\n    function vendor_withdraw_all() public {\r\n        vendor_withdraw(Vendor_pool[msg.sender]);\r\n    }\r\n\r\n    // cancel validation and get staking tokens back\r\n    function quit() public {\r\n        \r\n    }\r\n\r\n    // anyone can sponsor for the transaction fee\r\n    function sponsor() public payable {\r\n\r\n    }\r\n\r\n\r\n\r\n    function get_admin_donation_pool() public view returns (uint256){\r\n        return admin_donation_pool;\r\n    }\r\n    function get_donation_record(address a) public view returns (uint256){\r\n        require(types[a] == type_map[\"Donor\"], \"Not a donor!\");\r\n        return donation_record[a];\r\n    }\r\n    function get_Recipient_donation_pool(address a) public view returns (uint256){\r\n        require(types[a] == type_map[\"Recipient\"], \"Not a recipient!\");\r\n        return Recipient_donation_pool[a];\r\n    }\r\n    function get_NPO_donation_pool(address a) public view returns (uint256){\r\n        require(types[a] == type_map[\"NPO\"], \"Not an NPO!\");\r\n        return NPO_donation_pool[a];\r\n    }\r\n    function get_CrowdFund_donation_pool(address a) public view returns (uint256){\r\n        require(types[a] == type_map[\"CrowdFund\"], \"Not a crowdfund!\");\r\n        return CrowdFund_donation_pool[a];\r\n    }\r\n    function get_CrowdFund_donation_target(address a) public view returns (uint256){\r\n        require(types[a] == type_map[\"CrowdFund\"], \"Not a crowdfund!\");\r\n        return CrowdFund_donation_target[a];\r\n    }\r\n    function get_Vendor_pool(address a) public view returns (uint256){\r\n        require(types[a] == type_map[\"Vendor\"], \"Not a vendor!\");\r\n        return Vendor_pool[a];\r\n    }\r\n    function get_type_ID(address a) public view returns(uint) {\r\n        return types[a];\r\n    }\r\n    function get_staked_fund(address a) public view returns(uint256) {\r\n        return staking_fund[a];\r\n    }\r\n    function get_description_hash(address a) public view returns(bytes32) {\r\n        return descriptions[a];\r\n    }\r\n    function get_staking_price(uint type_id) public view returns(uint256) {\r\n        require(type_id > 0 && type_id < type_list.length, \"Invalid type_id!\");\r\n        return staking_price[type_list[type_id]];\r\n    }\r\n\r\n    function is_valid(address a) private view returns(bool) {\r\n        return validations[a];\r\n    }\r\n    function is_locked(address a) private view returns(bool) {\r\n        return lock[a];\r\n    }\r\n\r\n    /// admin control\r\n    ///\r\n    // Caution: amount's unit is Drip.\r\n    function set_staking_price(uint type_id, uint256 amount) public {\r\n        require(msg.sender == project_admin, \"Admin permission denied.\");\r\n        require(type_id > 0 && type_id < type_list.length, \"Invalid type_id!\");\r\n        staking_price[type_list[type_id]] = amount;\r\n    }\r\n    // admin can lock adresses with suspicious behaviors\r\n    function lock_address(address a) public {\r\n        require(msg.sender == project_admin, \"Admin permission denied.\");\r\n        lock[a] = true;\r\n        validations[a] = false;\r\n    }\r\n    function unlock(address a) public {\r\n        require(msg.sender == project_admin, \"Admin permission denied.\");\r\n        lock[a] = false;\r\n    }\r\n\r\n    // test functions\r\n    //function get_test_encripted_description_hash(bytes32) public view {\r\n    //    return bytes32(\"2333. What a miracle!\");\r\n    //}\r\n\r\n}",
  "sourcePath": "/d/git_repos/uma_bbnc_project/Project X/contracts/ProjectX.sol",
  "compiler": {
    "name": "solc",
    "version": "0.7.3+commit.9bfce1f6.Linux.g++"
  },
  "schemaVersion": "3.2.0",
  "updatedAt": "2020-12-03T09:55:44.679Z",
  "devdoc": {
    "kind": "dev",
    "methods": {},
    "version": 1
  },
  "userdoc": {
    "kind": "user",
    "methods": {
      "set_staking_price(uint256,uint256)": {
        "notice": "admin control"
      }
    },
    "version": 1
  }
}