{
  "contractName": "ProjectX",
  "abi": [
    {
      "inputs": [],
      "stateMutability": "nonpayable",
      "type": "constructor"
    },
    {
      "inputs": [
        {
          "internalType": "uint256",
          "name": "type_id",
          "type": "uint256"
        }
      ],
      "name": "register",
      "outputs": [],
      "stateMutability": "nonpayable",
      "type": "function"
    },
    {
      "inputs": [],
      "name": "stake",
      "outputs": [],
      "stateMutability": "payable",
      "type": "function"
    },
    {
      "inputs": [
        {
          "internalType": "bytes32",
          "name": "encripted_description_hash",
          "type": "bytes32"
        }
      ],
      "name": "describe",
      "outputs": [],
      "stateMutability": "nonpayable",
      "type": "function"
    },
    {
      "inputs": [],
      "name": "validate",
      "outputs": [],
      "stateMutability": "nonpayable",
      "type": "function"
    },
    {
      "inputs": [],
      "name": "donate",
      "outputs": [],
      "stateMutability": "payable",
      "type": "function"
    },
    {
      "inputs": [
        {
          "internalType": "address payable",
          "name": "receiver",
          "type": "address"
        }
      ],
      "name": "donate_to",
      "outputs": [],
      "stateMutability": "payable",
      "type": "function"
    },
    {
      "inputs": [
        {
          "internalType": "uint256",
          "name": "amount",
          "type": "uint256"
        }
      ],
      "name": "withdraw",
      "outputs": [],
      "stateMutability": "nonpayable",
      "type": "function"
    },
    {
      "inputs": [],
      "name": "withdraw_all",
      "outputs": [],
      "stateMutability": "nonpayable",
      "type": "function"
    },
    {
      "inputs": [],
      "name": "quit",
      "outputs": [],
      "stateMutability": "nonpayable",
      "type": "function"
    },
    {
      "inputs": [],
      "name": "get_admin_donation_pool",
      "outputs": [
        {
          "internalType": "uint256",
          "name": "",
          "type": "uint256"
        }
      ],
      "stateMutability": "view",
      "type": "function"
    },
    {
      "inputs": [
        {
          "internalType": "address",
          "name": "a",
          "type": "address"
        }
      ],
      "name": "get_donation_record",
      "outputs": [
        {
          "internalType": "uint256",
          "name": "",
          "type": "uint256"
        }
      ],
      "stateMutability": "view",
      "type": "function"
    },
    {
      "inputs": [
        {
          "internalType": "address",
          "name": "a",
          "type": "address"
        }
      ],
      "name": "get_NPO_donation_pool",
      "outputs": [
        {
          "internalType": "uint256",
          "name": "",
          "type": "uint256"
        }
      ],
      "stateMutability": "view",
      "type": "function"
    },
    {
      "inputs": [
        {
          "internalType": "address",
          "name": "a",
          "type": "address"
        }
      ],
      "name": "get_CrowdFund_donation_pool",
      "outputs": [
        {
          "internalType": "uint256",
          "name": "",
          "type": "uint256"
        }
      ],
      "stateMutability": "view",
      "type": "function"
    },
    {
      "inputs": [
        {
          "internalType": "address",
          "name": "a",
          "type": "address"
        }
      ],
      "name": "get_CrowdFund_donation_target",
      "outputs": [
        {
          "internalType": "uint256",
          "name": "",
          "type": "uint256"
        }
      ],
      "stateMutability": "view",
      "type": "function"
    },
    {
      "inputs": [
        {
          "internalType": "address",
          "name": "a",
          "type": "address"
        }
      ],
      "name": "get_Vendor_pool",
      "outputs": [
        {
          "internalType": "uint256",
          "name": "",
          "type": "uint256"
        }
      ],
      "stateMutability": "view",
      "type": "function"
    },
    {
      "inputs": [
        {
          "internalType": "address",
          "name": "a",
          "type": "address"
        }
      ],
      "name": "get_type_ID",
      "outputs": [
        {
          "internalType": "uint256",
          "name": "",
          "type": "uint256"
        }
      ],
      "stateMutability": "view",
      "type": "function"
    },
    {
      "inputs": [
        {
          "internalType": "address",
          "name": "a",
          "type": "address"
        }
      ],
      "name": "get_staked_fund",
      "outputs": [
        {
          "internalType": "uint256",
          "name": "",
          "type": "uint256"
        }
      ],
      "stateMutability": "view",
      "type": "function"
    },
    {
      "inputs": [
        {
          "internalType": "address",
          "name": "a",
          "type": "address"
        }
      ],
      "name": "get_description_hash",
      "outputs": [
        {
          "internalType": "bytes32",
          "name": "",
          "type": "bytes32"
        }
      ],
      "stateMutability": "view",
      "type": "function"
    },
    {
      "inputs": [
        {
          "internalType": "uint256",
          "name": "type_id",
          "type": "uint256"
        }
      ],
      "name": "get_staking_price",
      "outputs": [
        {
          "internalType": "uint256",
          "name": "",
          "type": "uint256"
        }
      ],
      "stateMutability": "view",
      "type": "function"
    },
    {
      "inputs": [
        {
          "internalType": "uint256",
          "name": "type_id",
          "type": "uint256"
        },
        {
          "internalType": "uint256",
          "name": "amount",
          "type": "uint256"
        }
      ],
      "name": "set_staking_price",
      "outputs": [],
      "stateMutability": "nonpayable",
      "type": "function"
    }
  ],
  "bytecode": "0x60806040526040518060c001604052806040518060400160405280600781526020017f64656661756c740000000000000000000000000000000000000000000000000081525081526020016040518060400160405280600581526020017f446f6e6f7200000000000000000000000000000000000000000000000000000081525081526020016040518060400160405280600681526020017f56656e646f72000000000000000000000000000000000000000000000000000081525081526020016040518060400160405280600981526020017f526563697069656e74000000000000000000000000000000000000000000000081525081526020016040518060400160405280600381526020017f4e504f000000000000000000000000000000000000000000000000000000000081525081526020016040518060400160405280600981526020017f43726f776446756e640000000000000000000000000000000000000000000000815250815250600c90600662000181929190620003c3565b503480156200018f57600080fd5b50336000806101000a81548173ffffffffffffffffffffffffffffffffffffffff021916908373ffffffffffffffffffffffffffffffffffffffff16021790555060006001819055506000600190505b600c805490508110156200028c5780600b600c8381548110620001fe57fe5b906000526020600020016040518082805460018160011615610100020316600290048015620002675780601f106200024457610100808354040283529182019162000267565b820191906000526020600020905b81548152906001019060200180831162000252575b50509150509081526020016040518091039020819055508080600101915050620001df565b5068013f306a2409fc0000600d60405180807f526563697069656e7400000000000000000000000000000000000000000000008152506009019050908152602001604051809103902081905550680ca18649835a040000600d60405180807f4e504f0000000000000000000000000000000000000000000000000000000000815250600301905090815260200160405180910390208190555068241a9b4f617a280000600d60405180807f56656e646f7200000000000000000000000000000000000000000000000000008152506006019050908152602001604051809103902081905550687e78e1033c7a540000600d60405180807f43726f776446756e640000000000000000000000000000000000000000000000815250600901905090815260200160405180910390208190555062000544565b82805482825590600052602060002090810192821562000417579160200282015b8281111562000416578251829080519060200190620004059291906200042a565b5091602001919060010190620003e4565b5b509050620004269190620004b1565b5090565b828054600181600116156101000203166002900490600052602060002090601f016020900481019282601f106200046d57805160ff19168380011785556200049e565b828001600101855582156200049e579182015b828111156200049d57825182559160200191906001019062000480565b5b509050620004ad9190620004d9565b5090565b5b80821115620004d55760008181620004cb9190620004f8565b50600101620004b2565b5090565b5b80821115620004f4576000816000905550600101620004da565b5090565b50805460018160011615610100020316600290046000825580601f1062000520575062000541565b601f016020900490600052602060002090810190620005409190620004d9565b5b50565b61298a80620005546000396000f3fe60806040526004361061011f5760003560e01c80636180c4a4116100a0578063dd473d2b11610064578063dd473d2b14610581578063ed88c68e14610598578063f207564e146105a2578063f290165f146105dd578063fc2b8cc3146106425761011f565b80636180c4a4146104105780636901f6681461047557806388f7739e1461048c578063b9748be1146104f1578063c99108911461051c5761011f565b8063489d0278116100e7578063489d02781461024d57806349002e40146102b257806356b15300146102f757806357bee0671461034657806359cf0858146103ab5761011f565b80630220ef28146101245780630ef053931461015f5780632e1a7d4d146101c45780633a4b66f1146101ff57806344d63a7614610209575b600080fd5b34801561013057600080fd5b5061015d6004803603602081101561014757600080fd5b8101908080359060200190929190505050610659565b005b34801561016b57600080fd5b506101ae6004803603602081101561018257600080fd5b81019080803573ffffffffffffffffffffffffffffffffffffffff1690602001909291905050506106fe565b6040518082815260200191505060405180910390f35b3480156101d057600080fd5b506101fd600480360360208110156101e757600080fd5b8101908080359060200190929190505050610839565b005b610207610af1565b005b61024b6004803603602081101561021f57600080fd5b81019080803573ffffffffffffffffffffffffffffffffffffffff169060200190929190505050610d80565b005b34801561025957600080fd5b5061029c6004803603602081101561027057600080fd5b81019080803573ffffffffffffffffffffffffffffffffffffffff169060200190929190505050611847565b6040518082815260200191505060405180910390f35b3480156102be57600080fd5b506102f5600480360360408110156102d557600080fd5b810190808035906020019092919080359060200190929190505050611890565b005b34801561030357600080fd5b506103306004803603602081101561031a57600080fd5b8101908080359060200190929190505050611a67565b6040518082815260200191505060405180910390f35b34801561035257600080fd5b506103956004803603602081101561036957600080fd5b81019080803573ffffffffffffffffffffffffffffffffffffffff169060200190929190505050611b7d565b6040518082815260200191505060405180910390f35b3480156103b757600080fd5b506103fa600480360360208110156103ce57600080fd5b81019080803573ffffffffffffffffffffffffffffffffffffffff169060200190929190505050611cb8565b6040518082815260200191505060405180910390f35b34801561041c57600080fd5b5061045f6004803603602081101561043357600080fd5b81019080803573ffffffffffffffffffffffffffffffffffffffff169060200190929190505050611df3565b6040518082815260200191505060405180910390f35b34801561048157600080fd5b5061048a611f2e565b005b34801561049857600080fd5b506104db600480360360208110156104af57600080fd5b81019080803573ffffffffffffffffffffffffffffffffffffffff16906020019092919050505061211b565b6040518082815260200191505060405180910390f35b3480156104fd57600080fd5b50610506612256565b6040518082815260200191505060405180910390f35b34801561052857600080fd5b5061056b6004803603602081101561053f57600080fd5b81019080803573ffffffffffffffffffffffffffffffffffffffff169060200190929190505050612260565b6040518082815260200191505060405180910390f35b34801561058d57600080fd5b506105966122a9565b005b6105a06122f3565b005b3480156105ae57600080fd5b506105db600480360360208110156105c557600080fd5b81019080803590602001909291905050506124ba565b005b3480156105e957600080fd5b5061062c6004803603602081101561060057600080fd5b81019080803573ffffffffffffffffffffffffffffffffffffffff1690602001909291905050506127b7565b6040518082815260200191505060405180910390f35b34801561064e57600080fd5b50610657612800565b005b61066233612802565b6106b7576040517f08c379a000000000000000000000000000000000000000000000000000000000815260040180806020018281038252602481526020018061290f6024913960400191505060405180910390fd5b80600460003373ffffffffffffffffffffffffffffffffffffffff1673ffffffffffffffffffffffffffffffffffffffff1681526020019081526020016000208190555050565b6000600b60405180807f56656e646f7200000000000000000000000000000000000000000000000000008152506006019050908152602001604051809103902054600260008473ffffffffffffffffffffffffffffffffffffffff1673ffffffffffffffffffffffffffffffffffffffff16815260200190815260200160002054146107f2576040517f08c379a000000000000000000000000000000000000000000000000000000000815260040180806020018281038252600d8152602001807f4e6f7420612076656e646f72210000000000000000000000000000000000000081525060200191505060405180910390fd5b600a60008373ffffffffffffffffffffffffffffffffffffffff1673ffffffffffffffffffffffffffffffffffffffff168152602001908152602001600020549050919050565b600b60405180807f56656e646f7200000000000000000000000000000000000000000000000000008152506006019050908152602001604051809103902054600260003373ffffffffffffffffffffffffffffffffffffffff1673ffffffffffffffffffffffffffffffffffffffff168152602001908152602001600020541461092b576040517f08c379a000000000000000000000000000000000000000000000000000000000815260040180806020018281038252601a8152602001807f4f6e6c792076656e646f72732063616e2077697468647261772100000000000081525060200191505060405180910390fd5b61093433612802565b6109a6576040517f08c379a000000000000000000000000000000000000000000000000000000000815260040180806020018281038252600f8152602001807f496e76616c69642076656e646f7221000000000000000000000000000000000081525060200191505060405180910390fd5b80600a60003373ffffffffffffffffffffffffffffffffffffffff1673ffffffffffffffffffffffffffffffffffffffff1681526020019081526020016000205411610a5a576040517f08c379a00000000000000000000000000000000000000000000000000000000081526004018080602001828103825260148152602001807f556e737566666369656e742062616c616e63652100000000000000000000000081525060200191505060405180910390fd5b80600a60003373ffffffffffffffffffffffffffffffffffffffff1673ffffffffffffffffffffffffffffffffffffffff168152602001908152602001600020600082825403925050819055503373ffffffffffffffffffffffffffffffffffffffff166108fc829081150290604051600060405180830381858888f19350505050158015610aed573d6000803e3d6000fd5b5050565b610afa33612802565b15610b50576040517f08c379a00000000000000000000000000000000000000000000000000000000081526004018080602001828103825260268152602001806128c66026913960400191505060405180910390fd5b6000600560003373ffffffffffffffffffffffffffffffffffffffff1673ffffffffffffffffffffffffffffffffffffffff1681526020019081526020016000205414610be8576040517f08c379a000000000000000000000000000000000000000000000000000000000815260040180806020018281038252602481526020018061287c6024913960400191505060405180910390fd5b600b60405180807f526563697069656e7400000000000000000000000000000000000000000000008152506009019050908152602001604051809103902054600260003373ffffffffffffffffffffffffffffffffffffffff1673ffffffffffffffffffffffffffffffffffffffff168152602001908152602001600020541415610c7257610d7e565b600b60405180807f4e504f00000000000000000000000000000000000000000000000000000000008152506003019050908152602001604051809103902054600260003373ffffffffffffffffffffffffffffffffffffffff1673ffffffffffffffffffffffffffffffffffffffff168152602001908152602001600020541415610cfc57610d7d565b600b60405180807f43726f776446756e6400000000000000000000000000000000000000000000008152506009019050908152602001604051809103902054600260003373ffffffffffffffffffffffffffffffffffffffff1673ffffffffffffffffffffffffffffffffffffffff16815260200190815260200160002050505b5b565b610d8933612802565b610dfb576040517f08c379a000000000000000000000000000000000000000000000000000000000815260040180806020018281038252600f8152602001807f496e76616c69642073656e64657221000000000000000000000000000000000081525060200191505060405180910390fd5b610e0481612802565b610e76576040517f08c379a00000000000000000000000000000000000000000000000000000000081526004018080602001828103825260118152602001807f496e76616c69642072656365697665722100000000000000000000000000000081525060200191505060405180910390fd5b6000600260008373ffffffffffffffffffffffffffffffffffffffff1673ffffffffffffffffffffffffffffffffffffffff168152602001908152602001600020541415610f2c576040517f08c379a00000000000000000000000000000000000000000000000000000000081526004018080602001828103825260168152602001807f556e72656769737465726564207265636569766572210000000000000000000081525060200191505060405180910390fd5b600b60405180807f446f6e6f720000000000000000000000000000000000000000000000000000008152506005019050908152602001604051809103902054600260003373ffffffffffffffffffffffffffffffffffffffff1673ffffffffffffffffffffffffffffffffffffffff168152602001908152602001600020541461101e576040517f08c379a00000000000000000000000000000000000000000000000000000000081526004018080602001828103825260178152602001807f4f6e6c7920646f6e6f72732063616e20646f6e6174652100000000000000000081525060200191505060405180910390fd5b600b60405180807f446f6e6f720000000000000000000000000000000000000000000000000000008152506005019050908152602001604051809103902054600260008373ffffffffffffffffffffffffffffffffffffffff1673ffffffffffffffffffffffffffffffffffffffff1681526020019081526020016000205414156110f4576040517f08c379a00000000000000000000000000000000000000000000000000000000081526004018080602001828103825260228152602001806129336022913960400191505060405180910390fd5b600b60405180807f56656e646f7200000000000000000000000000000000000000000000000000008152506006019050908152602001604051809103902054600260008373ffffffffffffffffffffffffffffffffffffffff1673ffffffffffffffffffffffffffffffffffffffff1681526020019081526020016000205414156111ca576040517f08c379a00000000000000000000000000000000000000000000000000000000081526004018080602001828103825260238152602001806128ec6023913960400191505060405180910390fd5b60003411611240576040517f08c379a00000000000000000000000000000000000000000000000000000000081526004018080602001828103825260118152602001807f496e76616c696420646f6e6174696f6e2100000000000000000000000000000081525060200191505060405180910390fd5b600b60405180807f526563697069656e7400000000000000000000000000000000000000000000008152506009019050908152602001604051809103902054600260008373ffffffffffffffffffffffffffffffffffffffff1673ffffffffffffffffffffffffffffffffffffffff16815260200190815260200160002054141561135e578073ffffffffffffffffffffffffffffffffffffffff166108fc349081150290604051600060405180830381858888f1935050505015801561130b573d6000803e3d6000fd5b5034600660003373ffffffffffffffffffffffffffffffffffffffff1673ffffffffffffffffffffffffffffffffffffffff16815260200190815260200160002060008282540192505081905550611844565b600b60405180807f4e504f00000000000000000000000000000000000000000000000000000000008152506003019050908152602001604051809103902054600260008373ffffffffffffffffffffffffffffffffffffffff1673ffffffffffffffffffffffffffffffffffffffff1681526020019081526020016000205414156114825734600760008373ffffffffffffffffffffffffffffffffffffffff1673ffffffffffffffffffffffffffffffffffffffff1681526020019081526020016000206000828254019250508190555034600660003373ffffffffffffffffffffffffffffffffffffffff1673ffffffffffffffffffffffffffffffffffffffff16815260200190815260200160002060008282540192505081905550611843565b600b60405180807f43726f776446756e6400000000000000000000000000000000000000000000008152506009019050908152602001604051809103902054600260008373ffffffffffffffffffffffffffffffffffffffff1673ffffffffffffffffffffffffffffffffffffffff16815260200190815260200160002054141561184257600960008273ffffffffffffffffffffffffffffffffffffffff1673ffffffffffffffffffffffffffffffffffffffff16815260200190815260200160002054600860008373ffffffffffffffffffffffffffffffffffffffff1673ffffffffffffffffffffffffffffffffffffffff16815260200190815260200160002054106115fa576040517f08c379a000000000000000000000000000000000000000000000000000000000815260040180806020018281038252601a8152602001807f446f6e6174696f6e2074617267657420636f6d706c657465642100000000000081525060200191505060405180910390fd5b6000600860008373ffffffffffffffffffffffffffffffffffffffff1673ffffffffffffffffffffffffffffffffffffffff16815260200190815260200160002054600960008473ffffffffffffffffffffffffffffffffffffffff1673ffffffffffffffffffffffffffffffffffffffff16815260200190815260200160002054039050803411156117a5573373ffffffffffffffffffffffffffffffffffffffff166108fc8234039081150290604051600060405180830381858888f193505050501580156116cf573d6000803e3d6000fd5b50600960008373ffffffffffffffffffffffffffffffffffffffff1673ffffffffffffffffffffffffffffffffffffffff16815260200190815260200160002054600860008473ffffffffffffffffffffffffffffffffffffffff1673ffffffffffffffffffffffffffffffffffffffff1681526020019081526020016000208190555080600660003373ffffffffffffffffffffffffffffffffffffffff1673ffffffffffffffffffffffffffffffffffffffff16815260200190815260200160002060008282540192505081905550611840565b34600860008473ffffffffffffffffffffffffffffffffffffffff1673ffffffffffffffffffffffffffffffffffffffff1681526020019081526020016000206000828254019250508190555034600660003373ffffffffffffffffffffffffffffffffffffffff1673ffffffffffffffffffffffffffffffffffffffff168152602001908152602001600020600082825401925050819055505b505b5b5b50565b6000600260008373ffffffffffffffffffffffffffffffffffffffff1673ffffffffffffffffffffffffffffffffffffffff168152602001908152602001600020549050919050565b60008054906101000a900473ffffffffffffffffffffffffffffffffffffffff1673ffffffffffffffffffffffffffffffffffffffff163373ffffffffffffffffffffffffffffffffffffffff1614611951576040517f08c379a00000000000000000000000000000000000000000000000000000000081526004018080602001828103825260188152602001807f41646d696e207065726d697373696f6e2064656e6965642e000000000000000081525060200191505060405180910390fd5b6000821180156119655750600c8054905082105b6119d7576040517f08c379a00000000000000000000000000000000000000000000000000000000081526004018080602001828103825260108152602001807f496e76616c696420747970655f6964210000000000000000000000000000000081525060200191505060405180910390fd5b80600d600c84815481106119e757fe5b906000526020600020016040518082805460018160011615610100020316600290048015611a4c5780601f10611a2a576101008083540402835291820191611a4c565b820191906000526020600020905b815481529060010190602001808311611a38575b50509150509081526020016040518091039020819055505050565b60008082118015611a7c5750600c8054905082105b611aee576040517f08c379a00000000000000000000000000000000000000000000000000000000081526004018080602001828103825260108152602001807f496e76616c696420747970655f6964210000000000000000000000000000000081525060200191505060405180910390fd5b600d600c8381548110611afd57fe5b906000526020600020016040518082805460018160011615610100020316600290048015611b625780601f10611b40576101008083540402835291820191611b62565b820191906000526020600020905b815481529060010190602001808311611b4e575b50509150509081526020016040518091039020549050919050565b6000600b60405180807f446f6e6f720000000000000000000000000000000000000000000000000000008152506005019050908152602001604051809103902054600260008473ffffffffffffffffffffffffffffffffffffffff1673ffffffffffffffffffffffffffffffffffffffff1681526020019081526020016000205414611c71576040517f08c379a000000000000000000000000000000000000000000000000000000000815260040180806020018281038252600c8152602001807f4e6f74206120646f6e6f7221000000000000000000000000000000000000000081525060200191505060405180910390fd5b600660008373ffffffffffffffffffffffffffffffffffffffff1673ffffffffffffffffffffffffffffffffffffffff168152602001908152602001600020549050919050565b6000600b60405180807f43726f776446756e6400000000000000000000000000000000000000000000008152506009019050908152602001604051809103902054600260008473ffffffffffffffffffffffffffffffffffffffff1673ffffffffffffffffffffffffffffffffffffffff1681526020019081526020016000205414611dac576040517f08c379a00000000000000000000000000000000000000000000000000000000081526004018080602001828103825260108152602001807f4e6f7420612063726f776466756e64210000000000000000000000000000000081525060200191505060405180910390fd5b600960008373ffffffffffffffffffffffffffffffffffffffff1673ffffffffffffffffffffffffffffffffffffffff168152602001908152602001600020549050919050565b6000600b60405180807f4e504f00000000000000000000000000000000000000000000000000000000008152506003019050908152602001604051809103902054600260008473ffffffffffffffffffffffffffffffffffffffff1673ffffffffffffffffffffffffffffffffffffffff1681526020019081526020016000205414611ee7576040517f08c379a000000000000000000000000000000000000000000000000000000000815260040180806020018281038252600b8152602001807f4e6f7420616e204e504f2100000000000000000000000000000000000000000081525060200191505060405180910390fd5b600760008373ffffffffffffffffffffffffffffffffffffffff1673ffffffffffffffffffffffffffffffffffffffff168152602001908152602001600020549050919050565b611f3733612802565b15611f8d576040517f08c379a00000000000000000000000000000000000000000000000000000000081526004018080602001828103825260268152602001806128a06026913960400191505060405180910390fd5b6000600560003373ffffffffffffffffffffffffffffffffffffffff1673ffffffffffffffffffffffffffffffffffffffff168152602001908152602001600020541415612026576040517f08c379a000000000000000000000000000000000000000000000000000000000815260040180806020018281038252602481526020018061287c6024913960400191505060405180910390fd5b6000801b600460003373ffffffffffffffffffffffffffffffffffffffff1673ffffffffffffffffffffffffffffffffffffffff1681526020019081526020016000205414156120c1576040517f08c379a00000000000000000000000000000000000000000000000000000000081526004018080602001828103825260238152602001806128596023913960400191505060405180910390fd5b6001600360003373ffffffffffffffffffffffffffffffffffffffff1673ffffffffffffffffffffffffffffffffffffffff16815260200190815260200160002060006101000a81548160ff021916908315150217905550565b6000600b60405180807f43726f776446756e6400000000000000000000000000000000000000000000008152506009019050908152602001604051809103902054600260008473ffffffffffffffffffffffffffffffffffffffff1673ffffffffffffffffffffffffffffffffffffffff168152602001908152602001600020541461220f576040517f08c379a00000000000000000000000000000000000000000000000000000000081526004018080602001828103825260108152602001807f4e6f7420612063726f776466756e64210000000000000000000000000000000081525060200191505060405180910390fd5b600860008373ffffffffffffffffffffffffffffffffffffffff1673ffffffffffffffffffffffffffffffffffffffff168152602001908152602001600020549050919050565b6000600154905090565b6000600460008373ffffffffffffffffffffffffffffffffffffffff1673ffffffffffffffffffffffffffffffffffffffff168152602001908152602001600020549050919050565b6122f1600a60003373ffffffffffffffffffffffffffffffffffffffff1673ffffffffffffffffffffffffffffffffffffffff16815260200190815260200160002054610839565b565b600b60405180807f446f6e6f720000000000000000000000000000000000000000000000000000008152506005019050908152602001604051809103902054600260003373ffffffffffffffffffffffffffffffffffffffff1673ffffffffffffffffffffffffffffffffffffffff16815260200190815260200160002054146123e5576040517f08c379a00000000000000000000000000000000000000000000000000000000081526004018080602001828103825260178152602001807f4f6e6c7920646f6e6f72732063616e20646f6e6174652100000000000000000081525060200191505060405180910390fd5b6000341161245b576040517f08c379a00000000000000000000000000000000000000000000000000000000081526004018080602001828103825260118152602001807f496e76616c696420646f6e6174696f6e2100000000000000000000000000000081525060200191505060405180910390fd5b3460016000828254019250508190555034600660003373ffffffffffffffffffffffffffffffffffffffff1673ffffffffffffffffffffffffffffffffffffffff16815260200190815260200160002060008282540192505081905550565b6000600260003373ffffffffffffffffffffffffffffffffffffffff1673ffffffffffffffffffffffffffffffffffffffff168152602001908152602001600020541461256f576040517f08c379a00000000000000000000000000000000000000000000000000000000081526004018080602001828103825260158152602001807f43616e277420726567697374657220747769636521000000000000000000000081525060200191505060405180910390fd5b6000811180156125835750600c8054905081105b6125f5576040517f08c379a00000000000000000000000000000000000000000000000000000000081526004018080602001828103825260108152602001807f496e76616c696420747970655f6964210000000000000000000000000000000081525060200191505060405180910390fd5b80600260003373ffffffffffffffffffffffffffffffffffffffff1673ffffffffffffffffffffffffffffffffffffffff168152602001908152602001600020819055506000600360003373ffffffffffffffffffffffffffffffffffffffff1673ffffffffffffffffffffffffffffffffffffffff16815260200190815260200160002060006101000a81548160ff0219169083151502179055506000600560003373ffffffffffffffffffffffffffffffffffffffff1673ffffffffffffffffffffffffffffffffffffffff16815260200190815260200160002081905550600b60405180807f446f6e6f720000000000000000000000000000000000000000000000000000008152506005019050908152602001604051809103902054600260003373ffffffffffffffffffffffffffffffffffffffff1673ffffffffffffffffffffffffffffffffffffffff1681526020019081526020016000205414156127b4576001600360003373ffffffffffffffffffffffffffffffffffffffff1673ffffffffffffffffffffffffffffffffffffffff16815260200190815260200160002060006101000a81548160ff0219169083151502179055505b50565b6000600560008373ffffffffffffffffffffffffffffffffffffffff1673ffffffffffffffffffffffffffffffffffffffff168152602001908152602001600020549050919050565b565b6000600360008373ffffffffffffffffffffffffffffffffffffffff1673ffffffffffffffffffffffffffffffffffffffff16815260200190815260200160002060009054906101000a900460ff16905091905056fe4e656564206465736372697074696f6e206265666f72652076616c69646174696f6e2e4f6e6c7920756e7374616b656420616464726573732063616e206265207374616b6564214f6e6c7920696e76616c696420616464726573732063616e2062652076616c696461746564214f6e6c7920696e76616c696420616464726573732063616e20626520646573637269626564214f6e6c79204e4f542076656e646f72732063616e20626520646f6e6174656420746f214f6e6c792076616c696420616464726573732063616e20626520646573637269626564214f6e6c79204e4f5420646f6e6f72732063616e20626520646f6e6174656420746f21a264697066735822122069f2ce232fae1f271b4a614e80ec07cd31e77f90527a8771221f84a2018ca3e364736f6c63430007030033",
  "immutableReferences": {},
  "source": "pragma solidity >=0.5.0;\r\n\r\ncontract ProjectX {\r\n    // admin records\r\n    address project_admin;\r\n    uint256 admin_donation_pool;\r\n    \r\n    // Unit informations\r\n    mapping (address => uint) private types;\r\n    mapping (address => bool) private validations;\r\n    mapping (address => bytes32) private descriptions;    // sha256( description )\r\n\r\n    // global records\r\n    mapping (address => uint256) private staking_fund;\r\n    mapping (address => uint256) private donation_record;\r\n    mapping (address => uint256) private NPO_donation_pool;\r\n    mapping (address => uint256) private CrowdFund_donation_pool;\r\n    mapping (address => uint256) private CrowdFund_donation_target;\r\n    mapping (address => uint256) private Vendor_pool;\r\n    \r\n    // type info\r\n    mapping (string => uint) private type_map;\r\n    string[] private type_list = [\"default\", \"Donor\", \"Vendor\", \"Recipient\", \"NPO\", \"CrowdFund\"];\r\n    mapping (string => uint256) private staking_price;\r\n\r\n    // initialization\r\n    constructor() {\r\n        project_admin = msg.sender;\r\n        admin_donation_pool = 0;\r\n        for(uint i = 1; i < type_list.length; i++){\r\n            type_map[ type_list[i] ] = i;\r\n        }\r\n        staking_price[\"Recipient\"] = 23 * 1e18;\r\n        staking_price[\"NPO\"] = 233 * 1e18;\r\n        staking_price[\"Vendor\"] = 666 * 1e18;\r\n        staking_price[\"CrowdFund\"] = 2333 * 1e18;\r\n    }\r\n    \r\n    function register(uint type_id) public {\r\n        require(types[msg.sender] == uint(0x0), \"Can't register twice!\");\r\n        require(type_id > 0 && type_id < type_list.length, \"Invalid type_id!\");\r\n        \r\n        types[msg.sender] = type_id;\r\n        validations[msg.sender] = false;\r\n        staking_fund[msg.sender] = 0;\r\n\r\n        // Donors is valid by default.\r\n        if(types[msg.sender] == type_map[\"Donor\"]){\r\n            validations[msg.sender] = true;\r\n        }\r\n    }\r\n    \r\n    // staking to ensure safety\r\n    function stake() public payable {\r\n        require(!is_valid(msg.sender), \"Only invalid address can be described!\");\r\n        require(staking_fund[msg.sender] == 0, \"Only unstaked address can be staked!\");\r\n        // Seperate situations\r\n        if(types[msg.sender] == type_map[\"Recipient\"]){\r\n            \r\n        }\r\n        else if(types[msg.sender] == type_map[\"NPO\"]){\r\n            \r\n        }\r\n        else if(types[msg.sender] == type_map[\"CrowdFund\"]){\r\n            \r\n        }\r\n    }\r\n    \r\n    // describe an adress's purpose\r\n    function describe(bytes32 encripted_description_hash) public {\r\n        require(is_valid(msg.sender), \"Only valid address can be described!\");\r\n        descriptions[msg.sender] = encripted_description_hash;\r\n    }\r\n\r\n    // validate an address\r\n    function validate() public {\r\n        require(!is_valid(msg.sender), \"Only invalid address can be validated!\");\r\n        require(staking_fund[msg.sender] != 0, \"Only unstaked address can be staked!\");\r\n        require(descriptions[msg.sender] != bytes32(0x0), \"Need description before validation.\");\r\n\r\n        validations[msg.sender] = true;\r\n    }\r\n    \r\n    // donation to the contract\r\n    function donate() public payable {\r\n        require(types[msg.sender] == type_map[\"Donor\"], \"Only donors can donate!\");\r\n        require(msg.value > 0, \"Invalid donation!\");\r\n        admin_donation_pool += msg.value;\r\n        donation_record[msg.sender] += msg.value;\r\n    }\r\n    \r\n    // p2p donation\r\n    function donate_to(address payable receiver) public payable {\r\n        require(is_valid(msg.sender), \"Invalid sender!\");\r\n        require(is_valid(receiver), \"Invalid receiver!\");\r\n\r\n        require(types[receiver] != uint(0x0), \"Unregistered receiver!\");\r\n        require(types[msg.sender] == type_map[\"Donor\"], \"Only donors can donate!\");\r\n        require(types[receiver] != type_map[\"Donor\"], \"Only NOT donors can be donated to!\");\r\n        require(types[receiver] != type_map[\"Vendor\"], \"Only NOT vendors can be donated to!\");\r\n\r\n        require(msg.value > 0, \"Invalid donation!\");\r\n        \r\n        // Seperate situations\r\n        if(types[receiver] == type_map[\"Recipient\"]){\r\n            // transfer directly from sender to receiver\r\n            receiver.transfer(msg.value);\r\n            donation_record[msg.sender] += msg.value;\r\n        }\r\n        else if(types[receiver] == type_map[\"NPO\"]){\r\n            NPO_donation_pool[receiver] += msg.value;\r\n            donation_record[msg.sender] += msg.value;\r\n        }\r\n        else if(types[receiver] == type_map[\"CrowdFund\"]){\r\n            require(CrowdFund_donation_pool[receiver] < CrowdFund_donation_target[receiver], \"Donation target completed!\");\r\n            uint256 lim = CrowdFund_donation_target[receiver] - CrowdFund_donation_pool[receiver];\r\n            if(msg.value > lim){\r\n                msg.sender.transfer(msg.value - lim);\r\n                CrowdFund_donation_pool[receiver] = CrowdFund_donation_target[receiver];\r\n                donation_record[msg.sender] += lim;\r\n            } else{\r\n                CrowdFund_donation_pool[receiver] += msg.value;\r\n                donation_record[msg.sender] += msg.value;\r\n            }\r\n        }\r\n        \r\n    }\r\n    \r\n    \r\n    // Only vendors can cash out\r\n    function withdraw(uint256 amount) public {\r\n        require(types[msg.sender] == type_map[\"Vendor\"], \"Only vendors can withdraw!\");\r\n        require(is_valid(msg.sender), \"Invalid vendor!\");\r\n        require(Vendor_pool[msg.sender] > amount, \"Unsuffcient balance!\");\r\n\r\n        Vendor_pool[msg.sender] -= amount;\r\n        msg.sender.transfer(amount);\r\n    }\r\n\r\n    // cash out all the tokens\r\n    function withdraw_all() public {\r\n        withdraw(Vendor_pool[msg.sender]);\r\n    }\r\n\r\n    // cancel validation and get staking tokens back\r\n    function quit() public {\r\n        \r\n    }\r\n\r\n\r\n\r\n    function get_admin_donation_pool() public view returns (uint256){\r\n        return admin_donation_pool;\r\n    }\r\n    function get_donation_record(address a) public view returns (uint256){\r\n        require(types[a] == type_map[\"Donor\"], \"Not a donor!\");\r\n        return donation_record[a];\r\n    }\r\n    function get_NPO_donation_pool(address a) public view returns (uint256){\r\n        require(types[a] == type_map[\"NPO\"], \"Not an NPO!\");\r\n        return NPO_donation_pool[a];\r\n    }\r\n    function get_CrowdFund_donation_pool(address a) public view returns (uint256){\r\n        require(types[a] == type_map[\"CrowdFund\"], \"Not a crowdfund!\");\r\n        return CrowdFund_donation_pool[a];\r\n    }\r\n    function get_CrowdFund_donation_target(address a) public view returns (uint256){\r\n        require(types[a] == type_map[\"CrowdFund\"], \"Not a crowdfund!\");\r\n        return CrowdFund_donation_target[a];\r\n    }\r\n    function get_Vendor_pool(address a) public view returns (uint256){\r\n        require(types[a] == type_map[\"Vendor\"], \"Not a vendor!\");\r\n        return Vendor_pool[a];\r\n    }\r\n    function get_type_ID(address a) public view returns(uint) {\r\n        return types[a];\r\n    }\r\n    function get_staked_fund(address a) public view returns(uint256) {\r\n        return staking_fund[a];\r\n    }\r\n    function get_description_hash(address a) public view returns(bytes32) {\r\n        return descriptions[a];\r\n    }\r\n    function get_staking_price(uint type_id) public view returns(uint256) {\r\n        require(type_id > 0 && type_id < type_list.length, \"Invalid type_id!\");\r\n        return staking_price[type_list[type_id]];\r\n    }\r\n\r\n    function is_valid(address a) private view returns(bool) {\r\n        return validations[a];\r\n    }\r\n\r\n    // Caution: amount's unit is Drip.\r\n    function set_staking_price(uint type_id, uint256 amount) public {\r\n        require(msg.sender == project_admin, \"Admin permission denied.\");\r\n        require(type_id > 0 && type_id < type_list.length, \"Invalid type_id!\");\r\n        staking_price[type_list[type_id]] = amount;\r\n    }\r\n\r\n\r\n}",
  "sourcePath": "/d/!vel_files/Blockchain_UMA/!project/Project X/contracts/ProjectX.sol",
  "compiler": {
    "name": "solc",
    "version": "0.7.3+commit.9bfce1f6.Linux.g++"
  },
  "schemaVersion": "3.2.0",
  "updatedAt": "2020-12-01T13:21:25.816Z",
  "devdoc": {
    "kind": "dev",
    "methods": {},
    "version": 1
  },
  "userdoc": {
    "kind": "user",
    "methods": {},
    "version": 1
  }
}