{
  "contractName": "ProjectX",
  "abi": [
    {
      "inputs": [],
      "stateMutability": "nonpayable",
      "type": "constructor"
    },
    {
      "inputs": [
        {
          "internalType": "uint256",
          "name": "type_id",
          "type": "uint256"
        }
      ],
      "name": "register",
      "outputs": [],
      "stateMutability": "nonpayable",
      "type": "function"
    },
    {
      "inputs": [],
      "name": "stake",
      "outputs": [],
      "stateMutability": "payable",
      "type": "function"
    },
    {
      "inputs": [
        {
          "internalType": "bytes32",
          "name": "encripted_description_hash",
          "type": "bytes32"
        }
      ],
      "name": "describe",
      "outputs": [],
      "stateMutability": "nonpayable",
      "type": "function"
    },
    {
      "inputs": [],
      "name": "validate",
      "outputs": [],
      "stateMutability": "nonpayable",
      "type": "function"
    },
    {
      "inputs": [],
      "name": "donate",
      "outputs": [],
      "stateMutability": "payable",
      "type": "function"
    },
    {
      "inputs": [
        {
          "internalType": "address payable",
          "name": "receiver",
          "type": "address"
        }
      ],
      "name": "donate_to",
      "outputs": [],
      "stateMutability": "payable",
      "type": "function"
    },
    {
      "inputs": [
        {
          "internalType": "uint256",
          "name": "goods_number",
          "type": "uint256"
        },
        {
          "internalType": "uint256",
          "name": "quantity",
          "type": "uint256"
        }
      ],
      "name": "buy_goods",
      "outputs": [],
      "stateMutability": "payable",
      "type": "function"
    },
    {
      "inputs": [
        {
          "internalType": "address payable",
          "name": "receiver",
          "type": "address"
        },
        {
          "internalType": "uint256",
          "name": "amount",
          "type": "uint256"
        }
      ],
      "name": "NPO_distribute",
      "outputs": [],
      "stateMutability": "payable",
      "type": "function"
    },
    {
      "inputs": [
        {
          "internalType": "uint256",
          "name": "goods_number",
          "type": "uint256"
        },
        {
          "internalType": "uint256",
          "name": "price",
          "type": "uint256"
        },
        {
          "internalType": "bytes32",
          "name": "description",
          "type": "bytes32"
        }
      ],
      "name": "vendor_register_goods",
      "outputs": [],
      "stateMutability": "nonpayable",
      "type": "function"
    },
    {
      "inputs": [
        {
          "internalType": "uint256",
          "name": "goods_number",
          "type": "uint256"
        }
      ],
      "name": "vendor_cancel_goods",
      "outputs": [],
      "stateMutability": "nonpayable",
      "type": "function"
    },
    {
      "inputs": [
        {
          "internalType": "uint256",
          "name": "amount",
          "type": "uint256"
        }
      ],
      "name": "vendor_withdraw",
      "outputs": [],
      "stateMutability": "payable",
      "type": "function"
    },
    {
      "inputs": [],
      "name": "vendor_withdraw_all",
      "outputs": [],
      "stateMutability": "nonpayable",
      "type": "function"
    },
    {
      "inputs": [
        {
          "internalType": "uint256",
          "name": "amount",
          "type": "uint256"
        }
      ],
      "name": "recipient_withdraw",
      "outputs": [],
      "stateMutability": "payable",
      "type": "function"
    },
    {
      "inputs": [],
      "name": "recipient_withdraw_all",
      "outputs": [],
      "stateMutability": "nonpayable",
      "type": "function"
    },
    {
      "inputs": [],
      "name": "quit",
      "outputs": [],
      "stateMutability": "nonpayable",
      "type": "function"
    },
    {
      "inputs": [],
      "name": "sponsor",
      "outputs": [],
      "stateMutability": "payable",
      "type": "function"
    },
    {
      "inputs": [],
      "name": "get_admin_donation_pool",
      "outputs": [
        {
          "internalType": "uint256",
          "name": "",
          "type": "uint256"
        }
      ],
      "stateMutability": "view",
      "type": "function"
    },
    {
      "inputs": [
        {
          "internalType": "address",
          "name": "a",
          "type": "address"
        }
      ],
      "name": "get_donation_record",
      "outputs": [
        {
          "internalType": "uint256",
          "name": "",
          "type": "uint256"
        }
      ],
      "stateMutability": "view",
      "type": "function"
    },
    {
      "inputs": [
        {
          "internalType": "address",
          "name": "a",
          "type": "address"
        }
      ],
      "name": "get_Recipient_donation_pool",
      "outputs": [
        {
          "internalType": "uint256",
          "name": "",
          "type": "uint256"
        }
      ],
      "stateMutability": "view",
      "type": "function"
    },
    {
      "inputs": [
        {
          "internalType": "address",
          "name": "a",
          "type": "address"
        }
      ],
      "name": "get_NPO_donation_pool",
      "outputs": [
        {
          "internalType": "uint256",
          "name": "",
          "type": "uint256"
        }
      ],
      "stateMutability": "view",
      "type": "function"
    },
    {
      "inputs": [
        {
          "internalType": "address",
          "name": "a",
          "type": "address"
        }
      ],
      "name": "get_CrowdFund_donation_pool",
      "outputs": [
        {
          "internalType": "uint256",
          "name": "",
          "type": "uint256"
        }
      ],
      "stateMutability": "view",
      "type": "function"
    },
    {
      "inputs": [
        {
          "internalType": "address",
          "name": "a",
          "type": "address"
        }
      ],
      "name": "get_CrowdFund_donation_target",
      "outputs": [
        {
          "internalType": "uint256",
          "name": "",
          "type": "uint256"
        }
      ],
      "stateMutability": "view",
      "type": "function"
    },
    {
      "inputs": [
        {
          "internalType": "address",
          "name": "a",
          "type": "address"
        }
      ],
      "name": "get_Vendor_pool",
      "outputs": [
        {
          "internalType": "uint256",
          "name": "",
          "type": "uint256"
        }
      ],
      "stateMutability": "view",
      "type": "function"
    },
    {
      "inputs": [
        {
          "internalType": "address",
          "name": "a",
          "type": "address"
        }
      ],
      "name": "get_type_ID",
      "outputs": [
        {
          "internalType": "uint256",
          "name": "",
          "type": "uint256"
        }
      ],
      "stateMutability": "view",
      "type": "function"
    },
    {
      "inputs": [
        {
          "internalType": "address",
          "name": "a",
          "type": "address"
        }
      ],
      "name": "get_staked_fund",
      "outputs": [
        {
          "internalType": "uint256",
          "name": "",
          "type": "uint256"
        }
      ],
      "stateMutability": "view",
      "type": "function"
    },
    {
      "inputs": [
        {
          "internalType": "address",
          "name": "a",
          "type": "address"
        }
      ],
      "name": "get_description_hash",
      "outputs": [
        {
          "internalType": "bytes32",
          "name": "",
          "type": "bytes32"
        }
      ],
      "stateMutability": "view",
      "type": "function"
    },
    {
      "inputs": [
        {
          "internalType": "uint256",
          "name": "type_id",
          "type": "uint256"
        }
      ],
      "name": "get_staking_price",
      "outputs": [
        {
          "internalType": "uint256",
          "name": "",
          "type": "uint256"
        }
      ],
      "stateMutability": "view",
      "type": "function"
    },
    {
      "inputs": [
        {
          "internalType": "uint256",
          "name": "type_id",
          "type": "uint256"
        },
        {
          "internalType": "uint256",
          "name": "amount",
          "type": "uint256"
        }
      ],
      "name": "set_staking_price",
      "outputs": [],
      "stateMutability": "nonpayable",
      "type": "function"
    },
    {
      "inputs": [
        {
          "internalType": "address",
          "name": "a",
          "type": "address"
        }
      ],
      "name": "lock_address",
      "outputs": [],
      "stateMutability": "nonpayable",
      "type": "function"
    },
    {
      "inputs": [
        {
          "internalType": "address",
          "name": "a",
          "type": "address"
        }
      ],
      "name": "unlock",
      "outputs": [],
      "stateMutability": "nonpayable",
      "type": "function"
    }
  ],
  "bytecode": "0x60806040526040518060c001604052806040518060400160405280600781526020017f64656661756c740000000000000000000000000000000000000000000000000081525081526020016040518060400160405280600581526020017f446f6e6f7200000000000000000000000000000000000000000000000000000081525081526020016040518060400160405280600381526020017f4e504f000000000000000000000000000000000000000000000000000000000081525081526020016040518060400160405280600981526020017f526563697069656e74000000000000000000000000000000000000000000000081525081526020016040518060400160405280600981526020017f43726f776446756e64000000000000000000000000000000000000000000000081525081526020016040518060400160405280600681526020017f56656e646f72000000000000000000000000000000000000000000000000000081525081525060129060066200018192919062000526565b503480156200018f57600080fd5b50336000806101000a81548173ffffffffffffffffffffffffffffffffffffffff021916908373ffffffffffffffffffffffffffffffffffffffff16021790555060006001819055506000600190505b6012805490508110156200028c5780601160128381548110620001fe57fe5b906000526020600020016040518082805460018160011615610100020316600290048015620002675780601f106200024457610100808354040283529182019162000267565b820191906000526020600020905b81548152906001019060200180831162000252575b50509150509081526020016040518091039020819055508080600101915050620001df565b5068013f306a2409fc0000601360405180807f526563697069656e7400000000000000000000000000000000000000000000008152506009019050908152602001604051809103902081905550680ca18649835a040000601360405180807f4e504f0000000000000000000000000000000000000000000000000000000000815250600301905090815260200160405180910390208190555068241a9b4f617a280000601360405180807f56656e646f7200000000000000000000000000000000000000000000000000008152506006019050908152602001604051809103902081905550687e78e1033c7a540000601360405180807f43726f776446756e6400000000000000000000000000000000000000000000008152506009019050908152602001604051809103902081905550600073088800000000000000000000000000000000000190506060600167ffffffffffffffff81118015620003f157600080fd5b50604051908082528060200260200182016040528015620004215781602001602082028036833780820191505090505b5090506000816000815181106200043457fe5b602002602001019073ffffffffffffffffffffffffffffffffffffffff16908173ffffffffffffffffffffffffffffffffffffffff16815250508173ffffffffffffffffffffffffffffffffffffffff166310128d3e826040518263ffffffff1660e01b81526004018080602001828103825283818151815260200191508051906020019060200280838360005b83811015620004df578082015181840152602081019050620004c2565b5050505090500192505050600060405180830381600087803b1580156200050557600080fd5b505af11580156200051a573d6000803e3d6000fd5b505050505050620006a7565b8280548282559060005260206000209081019282156200057a579160200282015b8281111562000579578251829080519060200190620005689291906200058d565b509160200191906001019062000547565b5b50905062000589919062000614565b5090565b828054600181600116156101000203166002900490600052602060002090601f016020900481019282601f10620005d057805160ff191683800117855562000601565b8280016001018555821562000601579182015b8281111562000600578251825591602001919060010190620005e3565b5b5090506200061091906200063c565b5090565b5b808211156200063857600081816200062e91906200065b565b5060010162000615565b5090565b5b80821115620006575760008160009055506001016200063d565b5090565b50805460018160011615610100020316600290046000825580601f10620006835750620006a4565b601f016020900490600052602060002090810190620006a391906200063c565b5b50565b6149f980620006b76000396000f3fe6080604052600436106101cd5760003560e01c806371af1594116100f7578063c991089111610095578063ed88c68e11610064578063ed88c68e1461089f578063f207564e146108a9578063f290165f146108e4578063fc2b8cc314610949576101cd565b8063c99108911461076f578063dbe57465146107d4578063e7c0008914610839578063ec31fb2814610867576101cd565b80638f9a65ec116100d15780638f9a65ec146106c8578063b9748be114610716578063c34c975314610741578063c7abaed914610758576101cd565b806371af15941461062b57806377c936621461065957806388f7739e14610663576101cd565b806344d63a761161016f57806357bee0671161013e57806357bee067146104e557806359cf08581461054a5780636180c4a4146105af5780636901f66814610614576101cd565b806344d63a76146103a8578063489d0278146103ec57806349002e401461045157806356b1530014610496576101cd565b806320c4cc5f116101ab57806320c4cc5f146102ad5780632f6c493c146102fe5780633a4b66f11461034f57806343195df714610359576101cd565b80630220ef28146101d25780630ef053931461020d5780630faf94f914610272575b600080fd5b3480156101de57600080fd5b5061020b600480360360208110156101f557600080fd5b8101908080359060200190929190505050610960565b005b34801561021957600080fd5b5061025c6004803603602081101561023057600080fd5b81019080803573ffffffffffffffffffffffffffffffffffffffff169060200190929190505050610a5d565b6040518082815260200191505060405180910390f35b34801561027e57600080fd5b506102ab6004803603602081101561029557600080fd5b8101908080359060200190929190505050610b98565b005b3480156102b957600080fd5b506102fc600480360360208110156102d057600080fd5b81019080803573ffffffffffffffffffffffffffffffffffffffff169060200190929190505050610deb565b005b34801561030a57600080fd5b5061034d6004803603602081101561032157600080fd5b81019080803573ffffffffffffffffffffffffffffffffffffffff169060200190929190505050610f5f565b005b61035761107b565b005b34801561036557600080fd5b506103a66004803603606081101561037c57600080fd5b810190808035906020019092919080359060200190929190803590602001909291905050506113b5565b005b6103ea600480360360208110156103be57600080fd5b81019080803573ffffffffffffffffffffffffffffffffffffffff169060200190929190505050611660565b005b3480156103f857600080fd5b5061043b6004803603602081101561040f57600080fd5b81019080803573ffffffffffffffffffffffffffffffffffffffff16906020019092919050505061212d565b6040518082815260200191505060405180910390f35b34801561045d57600080fd5b506104946004803603604081101561047457600080fd5b810190808035906020019092919080359060200190929190505050612176565b005b3480156104a257600080fd5b506104cf600480360360208110156104b957600080fd5b810190808035906020019092919050505061234d565b6040518082815260200191505060405180910390f35b3480156104f157600080fd5b506105346004803603602081101561050857600080fd5b81019080803573ffffffffffffffffffffffffffffffffffffffff169060200190929190505050612463565b6040518082815260200191505060405180910390f35b34801561055657600080fd5b506105996004803603602081101561056d57600080fd5b81019080803573ffffffffffffffffffffffffffffffffffffffff16906020019092919050505061259e565b6040518082815260200191505060405180910390f35b3480156105bb57600080fd5b506105fe600480360360208110156105d257600080fd5b81019080803573ffffffffffffffffffffffffffffffffffffffff1690602001909291905050506126d9565b6040518082815260200191505060405180910390f35b34801561062057600080fd5b50610629612814565b005b6106576004803603602081101561064157600080fd5b8101908080359060200190929190505050612a7d565b005b610661612d18565b005b34801561066f57600080fd5b506106b26004803603602081101561068657600080fd5b81019080803573ffffffffffffffffffffffffffffffffffffffff169060200190929190505050612e74565b6040518082815260200191505060405180910390f35b610714600480360360408110156106de57600080fd5b81019080803573ffffffffffffffffffffffffffffffffffffffff16906020019092919080359060200190929190505050612faf565b005b34801561072257600080fd5b5061072b6133a2565b6040518082815260200191505060405180910390f35b34801561074d57600080fd5b506107566133ac565b005b34801561076457600080fd5b5061076d6133f6565b005b34801561077b57600080fd5b506107be6004803603602081101561079257600080fd5b81019080803573ffffffffffffffffffffffffffffffffffffffff169060200190929190505050613440565b6040518082815260200191505060405180910390f35b3480156107e057600080fd5b50610823600480360360208110156107f757600080fd5b81019080803573ffffffffffffffffffffffffffffffffffffffff169060200190929190505050613489565b6040518082815260200191505060405180910390f35b6108656004803603602081101561084f57600080fd5b81019080803590602001909291905050506135c4565b005b61089d6004803603604081101561087d57600080fd5b81019080803590602001909291908035906020019092919050505061387c565b005b6108a7613f3e565b005b3480156108b557600080fd5b506108e2600480360360208110156108cc57600080fd5b810190808035906020019092919050505061408f565b005b3480156108f057600080fd5b506109336004803603602081101561090757600080fd5b81019080803573ffffffffffffffffffffffffffffffffffffffff16906020019092919050505061438c565b6040518082815260200191505060405180910390f35b34801561095557600080fd5b5061095e6143d5565b005b6000600260003373ffffffffffffffffffffffffffffffffffffffff1673ffffffffffffffffffffffffffffffffffffffff168152602001908152602001600020541415610a16576040517f08c379a00000000000000000000000000000000000000000000000000000000081526004018080602001828103825260178152602001807f4e65656420746f2072656769737465722066697273742100000000000000000081525060200191505060405180910390fd5b80600560003373ffffffffffffffffffffffffffffffffffffffff1673ffffffffffffffffffffffffffffffffffffffff1681526020019081526020016000208190555050565b6000601160405180807f56656e646f7200000000000000000000000000000000000000000000000000008152506006019050908152602001604051809103902054600260008473ffffffffffffffffffffffffffffffffffffffff1673ffffffffffffffffffffffffffffffffffffffff1681526020019081526020016000205414610b51576040517f08c379a000000000000000000000000000000000000000000000000000000000815260040180806020018281038252600d8152602001807f4e6f7420612076656e646f72210000000000000000000000000000000000000081525060200191505060405180910390fd5b600c60008373ffffffffffffffffffffffffffffffffffffffff1673ffffffffffffffffffffffffffffffffffffffff168152602001908152602001600020549050919050565b601160405180807f56656e646f7200000000000000000000000000000000000000000000000000008152506006019050908152602001604051809103902054600260003373ffffffffffffffffffffffffffffffffffffffff1673ffffffffffffffffffffffffffffffffffffffff1681526020019081526020016000205414610c8a576040517f08c379a000000000000000000000000000000000000000000000000000000000815260040180806020018281038252601a8152602001807f4f6e6c792076656e646f72732063616e2077697468647261772100000000000081525060200191505060405180910390fd5b610c933361471e565b610d05576040517f08c379a000000000000000000000000000000000000000000000000000000000815260040180806020018281038252600f8152602001807f496e76616c69642076656e646f7221000000000000000000000000000000000081525060200191505060405180910390fd5b3373ffffffffffffffffffffffffffffffffffffffff16600f600083815260200190815260200160002060009054906101000a900473ffffffffffffffffffffffffffffffffffffffff1673ffffffffffffffffffffffffffffffffffffffff1614610dbc576040517f08c379a000000000000000000000000000000000000000000000000000000000815260040180806020018281038252602c815260200180614998602c913960400191505060405180910390fd5b60006010600083815260200190815260200160002060006101000a81548160ff02191690831515021790555050565b60008054906101000a900473ffffffffffffffffffffffffffffffffffffffff1673ffffffffffffffffffffffffffffffffffffffff163373ffffffffffffffffffffffffffffffffffffffff1614610eac576040517f08c379a00000000000000000000000000000000000000000000000000000000081526004018080602001828103825260188152602001807f41646d696e207065726d697373696f6e2064656e6965642e000000000000000081525060200191505060405180910390fd5b6001600460008373ffffffffffffffffffffffffffffffffffffffff1673ffffffffffffffffffffffffffffffffffffffff16815260200190815260200160002060006101000a81548160ff0219169083151502179055506000600360008373ffffffffffffffffffffffffffffffffffffffff1673ffffffffffffffffffffffffffffffffffffffff16815260200190815260200160002060006101000a81548160ff02191690831515021790555050565b60008054906101000a900473ffffffffffffffffffffffffffffffffffffffff1673ffffffffffffffffffffffffffffffffffffffff163373ffffffffffffffffffffffffffffffffffffffff1614611020576040517f08c379a00000000000000000000000000000000000000000000000000000000081526004018080602001828103825260188152602001807f41646d696e207065726d697373696f6e2064656e6965642e000000000000000081525060200191505060405180910390fd5b6000600460008373ffffffffffffffffffffffffffffffffffffffff1673ffffffffffffffffffffffffffffffffffffffff16815260200190815260200160002060006101000a81548160ff02191690831515021790555050565b6000600260003373ffffffffffffffffffffffffffffffffffffffff1673ffffffffffffffffffffffffffffffffffffffff168152602001908152602001600020541415611131576040517f08c379a00000000000000000000000000000000000000000000000000000000081526004018080602001828103825260178152602001807f4e65656420746f2072656769737465722066697273742100000000000000000081525060200191505060405180910390fd5b60136012600260003373ffffffffffffffffffffffffffffffffffffffff1673ffffffffffffffffffffffffffffffffffffffff168152602001908152602001600020548154811061117f57fe5b9060005260206000200160405180828054600181600116156101000203166002900480156111e45780601f106111c25761010080835404028352918201916111e4565b820191906000526020600020905b8154815290600101906020018083116111d0575b505091505090815260200160405180910390205434600660003373ffffffffffffffffffffffffffffffffffffffff1673ffffffffffffffffffffffffffffffffffffffff168152602001908152602001600020540111611290576040517f08c379a000000000000000000000000000000000000000000000000000000000815260040180806020018281038252602781526020018061483c6027913960400191505060405180910390fd5b601160405180807f446f6e6f720000000000000000000000000000000000000000000000000000008152506005019050908152602001604051809103902054600260003373ffffffffffffffffffffffffffffffffffffffff1673ffffffffffffffffffffffffffffffffffffffff168152602001908152602001600020541415611366576040517f08c379a00000000000000000000000000000000000000000000000000000000081526004018080602001828103825260238152602001806148196023913960400191505060405180910390fd5b34600660003373ffffffffffffffffffffffffffffffffffffffff1673ffffffffffffffffffffffffffffffffffffffff16815260200190815260200160002060008282540192505081905550565b601160405180807f56656e646f7200000000000000000000000000000000000000000000000000008152506006019050908152602001604051809103902054600260003373ffffffffffffffffffffffffffffffffffffffff1673ffffffffffffffffffffffffffffffffffffffff16815260200190815260200160002054146114a7576040517f08c379a000000000000000000000000000000000000000000000000000000000815260040180806020018281038252601a8152602001807f4f6e6c792076656e646f72732063616e2077697468647261772100000000000081525060200191505060405180910390fd5b6114b03361471e565b611522576040517f08c379a000000000000000000000000000000000000000000000000000000000815260040180806020018281038252600f8152602001807f496e76616c69642076656e646f7221000000000000000000000000000000000081525060200191505060405180910390fd5b6000801b600e600085815260200190815260200160002054146115ad576040517f08c379a00000000000000000000000000000000000000000000000000000000081526004018080602001828103825260148152602001807f476f6f64735f6e756d626572206578697374732e00000000000000000000000081525060200191505060405180910390fd5b81600d60008581526020019081526020016000208190555080600e60008581526020019081526020016000208190555033600f600085815260200190815260200160002060006101000a81548173ffffffffffffffffffffffffffffffffffffffff021916908373ffffffffffffffffffffffffffffffffffffffff16021790555060016010600085815260200190815260200160002060006101000a81548160ff021916908315150217905550505050565b6116693361471e565b6116db576040517f08c379a000000000000000000000000000000000000000000000000000000000815260040180806020018281038252600f8152602001807f496e76616c69642073656e64657221000000000000000000000000000000000081525060200191505060405180910390fd5b6116e48161471e565b611756576040517f08c379a00000000000000000000000000000000000000000000000000000000081526004018080602001828103825260118152602001807f496e76616c69642072656365697665722100000000000000000000000000000081525060200191505060405180910390fd5b6000600260008373ffffffffffffffffffffffffffffffffffffffff1673ffffffffffffffffffffffffffffffffffffffff16815260200190815260200160002054141561180c576040517f08c379a00000000000000000000000000000000000000000000000000000000081526004018080602001828103825260168152602001807f556e72656769737465726564207265636569766572210000000000000000000081525060200191505060405180910390fd5b601160405180807f446f6e6f720000000000000000000000000000000000000000000000000000008152506005019050908152602001604051809103902054600260003373ffffffffffffffffffffffffffffffffffffffff1673ffffffffffffffffffffffffffffffffffffffff16815260200190815260200160002054146118fe576040517f08c379a00000000000000000000000000000000000000000000000000000000081526004018080602001828103825260178152602001807f4f6e6c7920646f6e6f72732063616e20646f6e6174652100000000000000000081525060200191505060405180910390fd5b601160405180807f446f6e6f720000000000000000000000000000000000000000000000000000008152506005019050908152602001604051809103902054600260008373ffffffffffffffffffffffffffffffffffffffff1673ffffffffffffffffffffffffffffffffffffffff1681526020019081526020016000205414156119d4576040517f08c379a00000000000000000000000000000000000000000000000000000000081526004018080602001828103825260228152602001806149766022913960400191505060405180910390fd5b601160405180807f56656e646f7200000000000000000000000000000000000000000000000000008152506006019050908152602001604051809103902054600260008373ffffffffffffffffffffffffffffffffffffffff1673ffffffffffffffffffffffffffffffffffffffff168152602001908152602001600020541415611aaa576040517f08c379a00000000000000000000000000000000000000000000000000000000081526004018080602001828103825260238152602001806148ce6023913960400191505060405180910390fd5b60003411611b20576040517f08c379a00000000000000000000000000000000000000000000000000000000081526004018080602001828103825260118152602001807f496e76616c696420646f6e6174696f6e2100000000000000000000000000000081525060200191505060405180910390fd5b601160405180807f526563697069656e7400000000000000000000000000000000000000000000008152506009019050908152602001604051809103902054600260008373ffffffffffffffffffffffffffffffffffffffff1673ffffffffffffffffffffffffffffffffffffffff168152602001908152602001600020541415611c445734600960008373ffffffffffffffffffffffffffffffffffffffff1673ffffffffffffffffffffffffffffffffffffffff1681526020019081526020016000206000828254019250508190555034600760003373ffffffffffffffffffffffffffffffffffffffff1673ffffffffffffffffffffffffffffffffffffffff1681526020019081526020016000206000828254019250508190555061212a565b601160405180807f4e504f00000000000000000000000000000000000000000000000000000000008152506003019050908152602001604051809103902054600260008373ffffffffffffffffffffffffffffffffffffffff1673ffffffffffffffffffffffffffffffffffffffff168152602001908152602001600020541415611d685734600860008373ffffffffffffffffffffffffffffffffffffffff1673ffffffffffffffffffffffffffffffffffffffff1681526020019081526020016000206000828254019250508190555034600760003373ffffffffffffffffffffffffffffffffffffffff1673ffffffffffffffffffffffffffffffffffffffff16815260200190815260200160002060008282540192505081905550612129565b601160405180807f43726f776446756e6400000000000000000000000000000000000000000000008152506009019050908152602001604051809103902054600260008373ffffffffffffffffffffffffffffffffffffffff1673ffffffffffffffffffffffffffffffffffffffff16815260200190815260200160002054141561212857600b60008273ffffffffffffffffffffffffffffffffffffffff1673ffffffffffffffffffffffffffffffffffffffff16815260200190815260200160002054600a60008373ffffffffffffffffffffffffffffffffffffffff1673ffffffffffffffffffffffffffffffffffffffff1681526020019081526020016000205410611ee0576040517f08c379a000000000000000000000000000000000000000000000000000000000815260040180806020018281038252601a8152602001807f446f6e6174696f6e2074617267657420636f6d706c657465642100000000000081525060200191505060405180910390fd5b6000600a60008373ffffffffffffffffffffffffffffffffffffffff1673ffffffffffffffffffffffffffffffffffffffff16815260200190815260200160002054600b60008473ffffffffffffffffffffffffffffffffffffffff1673ffffffffffffffffffffffffffffffffffffffff168152602001908152602001600020540390508034111561208b573373ffffffffffffffffffffffffffffffffffffffff166108fc8234039081150290604051600060405180830381858888f19350505050158015611fb5573d6000803e3d6000fd5b50600b60008373ffffffffffffffffffffffffffffffffffffffff1673ffffffffffffffffffffffffffffffffffffffff16815260200190815260200160002054600a60008473ffffffffffffffffffffffffffffffffffffffff1673ffffffffffffffffffffffffffffffffffffffff1681526020019081526020016000208190555080600760003373ffffffffffffffffffffffffffffffffffffffff1673ffffffffffffffffffffffffffffffffffffffff16815260200190815260200160002060008282540192505081905550612126565b34600a60008473ffffffffffffffffffffffffffffffffffffffff1673ffffffffffffffffffffffffffffffffffffffff1681526020019081526020016000206000828254019250508190555034600760003373ffffffffffffffffffffffffffffffffffffffff1673ffffffffffffffffffffffffffffffffffffffff168152602001908152602001600020600082825401925050819055505b505b5b5b50565b6000600260008373ffffffffffffffffffffffffffffffffffffffff1673ffffffffffffffffffffffffffffffffffffffff168152602001908152602001600020549050919050565b60008054906101000a900473ffffffffffffffffffffffffffffffffffffffff1673ffffffffffffffffffffffffffffffffffffffff163373ffffffffffffffffffffffffffffffffffffffff1614612237576040517f08c379a00000000000000000000000000000000000000000000000000000000081526004018080602001828103825260188152602001807f41646d696e207065726d697373696f6e2064656e6965642e000000000000000081525060200191505060405180910390fd5b60008211801561224b575060128054905082105b6122bd576040517f08c379a00000000000000000000000000000000000000000000000000000000081526004018080602001828103825260108152602001807f496e76616c696420747970655f6964210000000000000000000000000000000081525060200191505060405180910390fd5b806013601284815481106122cd57fe5b9060005260206000200160405180828054600181600116156101000203166002900480156123325780601f10612310576101008083540402835291820191612332565b820191906000526020600020905b81548152906001019060200180831161231e575b50509150509081526020016040518091039020819055505050565b60008082118015612362575060128054905082105b6123d4576040517f08c379a00000000000000000000000000000000000000000000000000000000081526004018080602001828103825260108152602001807f496e76616c696420747970655f6964210000000000000000000000000000000081525060200191505060405180910390fd5b6013601283815481106123e357fe5b9060005260206000200160405180828054600181600116156101000203166002900480156124485780601f10612426576101008083540402835291820191612448565b820191906000526020600020905b815481529060010190602001808311612434575b50509150509081526020016040518091039020549050919050565b6000601160405180807f446f6e6f720000000000000000000000000000000000000000000000000000008152506005019050908152602001604051809103902054600260008473ffffffffffffffffffffffffffffffffffffffff1673ffffffffffffffffffffffffffffffffffffffff1681526020019081526020016000205414612557576040517f08c379a000000000000000000000000000000000000000000000000000000000815260040180806020018281038252600c8152602001807f4e6f74206120646f6e6f7221000000000000000000000000000000000000000081525060200191505060405180910390fd5b600760008373ffffffffffffffffffffffffffffffffffffffff1673ffffffffffffffffffffffffffffffffffffffff168152602001908152602001600020549050919050565b6000601160405180807f43726f776446756e6400000000000000000000000000000000000000000000008152506009019050908152602001604051809103902054600260008473ffffffffffffffffffffffffffffffffffffffff1673ffffffffffffffffffffffffffffffffffffffff1681526020019081526020016000205414612692576040517f08c379a00000000000000000000000000000000000000000000000000000000081526004018080602001828103825260108152602001807f4e6f7420612063726f776466756e64210000000000000000000000000000000081525060200191505060405180910390fd5b600b60008373ffffffffffffffffffffffffffffffffffffffff1673ffffffffffffffffffffffffffffffffffffffff168152602001908152602001600020549050919050565b6000601160405180807f4e504f00000000000000000000000000000000000000000000000000000000008152506003019050908152602001604051809103902054600260008473ffffffffffffffffffffffffffffffffffffffff1673ffffffffffffffffffffffffffffffffffffffff16815260200190815260200160002054146127cd576040517f08c379a000000000000000000000000000000000000000000000000000000000815260040180806020018281038252600b8152602001807f4e6f7420616e204e504f2100000000000000000000000000000000000000000081525060200191505060405180910390fd5b600860008373ffffffffffffffffffffffffffffffffffffffff1673ffffffffffffffffffffffffffffffffffffffff168152602001908152602001600020549050919050565b61281d33614774565b15612873576040517f08c379a00000000000000000000000000000000000000000000000000000000081526004018080602001828103825260238152602001806148636023913960400191505060405180910390fd5b61287c3361471e565b156128d2576040517f08c379a00000000000000000000000000000000000000000000000000000000081526004018080602001828103825260268152602001806148866026913960400191505060405180910390fd5b6000600660003373ffffffffffffffffffffffffffffffffffffffff1673ffffffffffffffffffffffffffffffffffffffff168152602001908152602001600020541415612988576040517f08c379a000000000000000000000000000000000000000000000000000000000815260040180806020018281038252601f8152602001807f4e656564207374616b696e67206265666f72652076616c69646174696f6e2e0081525060200191505060405180910390fd5b6000801b600560003373ffffffffffffffffffffffffffffffffffffffff1673ffffffffffffffffffffffffffffffffffffffff168152602001908152602001600020541415612a23576040517f08c379a00000000000000000000000000000000000000000000000000000000081526004018080602001828103825260238152602001806147cb6023913960400191505060405180910390fd5b6001600360003373ffffffffffffffffffffffffffffffffffffffff1673ffffffffffffffffffffffffffffffffffffffff16815260200190815260200160002060006101000a81548160ff021916908315150217905550565b601160405180807f526563697069656e7400000000000000000000000000000000000000000000008152506009019050908152602001604051809103902054600260003373ffffffffffffffffffffffffffffffffffffffff1673ffffffffffffffffffffffffffffffffffffffff1681526020019081526020016000205414612b52576040517f08c379a00000000000000000000000000000000000000000000000000000000081526004018080602001828103825260228152602001806148ac6022913960400191505060405180910390fd5b612b5b3361471e565b612bcd576040517f08c379a00000000000000000000000000000000000000000000000000000000081526004018080602001828103825260128152602001807f496e76616c696420726563697069656e7421000000000000000000000000000081525060200191505060405180910390fd5b80600960003373ffffffffffffffffffffffffffffffffffffffff1673ffffffffffffffffffffffffffffffffffffffff1681526020019081526020016000205411612c81576040517f08c379a00000000000000000000000000000000000000000000000000000000081526004018080602001828103825260148152602001807f556e737566666369656e742062616c616e63652100000000000000000000000081525060200191505060405180910390fd5b80600960003373ffffffffffffffffffffffffffffffffffffffff1673ffffffffffffffffffffffffffffffffffffffff168152602001908152602001600020600082825403925050819055503373ffffffffffffffffffffffffffffffffffffffff166108fc829081150290604051600060405180830381858888f19350505050158015612d14573d6000803e3d6000fd5b5050565b68056bc75e2d63100000341015612d7a576040517f08c379a000000000000000000000000000000000000000000000000000000000815260040180806020018281038252602f815260200180614947602f913960400191505060405180910390fd5b6000730888000000000000000000000000000000000001905060008190508073ffffffffffffffffffffffffffffffffffffffff16633e3e64283067016345785d8a00006040518363ffffffff1660e01b8152600401808373ffffffffffffffffffffffffffffffffffffffff16815260200182815260200192505050600060405180830381600087803b158015612e1157600080fd5b505af1158015612e25573d6000803e3d6000fd5b505050508173ffffffffffffffffffffffffffffffffffffffff166108fc349081150290604051600060405180830381858888f19350505050158015612e6f573d6000803e3d6000fd5b505050565b6000601160405180807f43726f776446756e6400000000000000000000000000000000000000000000008152506009019050908152602001604051809103902054600260008473ffffffffffffffffffffffffffffffffffffffff1673ffffffffffffffffffffffffffffffffffffffff1681526020019081526020016000205414612f68576040517f08c379a00000000000000000000000000000000000000000000000000000000081526004018080602001828103825260108152602001807f4e6f7420612063726f776466756e64210000000000000000000000000000000081525060200191505060405180910390fd5b600a60008373ffffffffffffffffffffffffffffffffffffffff1673ffffffffffffffffffffffffffffffffffffffff168152602001908152602001600020549050919050565b612fb83361471e565b61302a576040517f08c379a000000000000000000000000000000000000000000000000000000000815260040180806020018281038252600f8152602001807f496e76616c69642073656e64657221000000000000000000000000000000000081525060200191505060405180910390fd5b6130338261471e565b6130a5576040517f08c379a00000000000000000000000000000000000000000000000000000000081526004018080602001828103825260118152602001807f496e76616c69642072656365697665722100000000000000000000000000000081525060200191505060405180910390fd5b601160405180807f4e504f00000000000000000000000000000000000000000000000000000000008152506003019050908152602001604051809103902054600260003373ffffffffffffffffffffffffffffffffffffffff1673ffffffffffffffffffffffffffffffffffffffff168152602001908152602001600020541461317a576040517f08c379a000000000000000000000000000000000000000000000000000000000815260040180806020018281038252602b8152602001806147ee602b913960400191505060405180910390fd5b601160405180807f526563697069656e7400000000000000000000000000000000000000000000008152506009019050908152602001604051809103902054600260008473ffffffffffffffffffffffffffffffffffffffff1673ffffffffffffffffffffffffffffffffffffffff168152602001908152602001600020541461324f576040517f08c379a00000000000000000000000000000000000000000000000000000000081526004018080602001828103825260228152602001806148f16022913960400191505060405180910390fd5b80600860003373ffffffffffffffffffffffffffffffffffffffff1673ffffffffffffffffffffffffffffffffffffffff168152602001908152602001600020541015613304576040517f08c379a00000000000000000000000000000000000000000000000000000000081526004018080602001828103825260208152602001807f496e737566666369656e74204e504f277320646f6e6174696f6e20706f6f6c2e81525060200191505060405180910390fd5b80600860003373ffffffffffffffffffffffffffffffffffffffff1673ffffffffffffffffffffffffffffffffffffffff1681526020019081526020016000206000828254039250508190555080600960008473ffffffffffffffffffffffffffffffffffffffff1673ffffffffffffffffffffffffffffffffffffffff168152602001908152602001600020600082825401925050819055505050565b6000600154905090565b6133f4600c60003373ffffffffffffffffffffffffffffffffffffffff1673ffffffffffffffffffffffffffffffffffffffff168152602001908152602001600020546135c4565b565b61343e600960003373ffffffffffffffffffffffffffffffffffffffff1673ffffffffffffffffffffffffffffffffffffffff16815260200190815260200160002054612a7d565b565b6000600560008373ffffffffffffffffffffffffffffffffffffffff1673ffffffffffffffffffffffffffffffffffffffff168152602001908152602001600020549050919050565b6000601160405180807f526563697069656e7400000000000000000000000000000000000000000000008152506009019050908152602001604051809103902054600260008473ffffffffffffffffffffffffffffffffffffffff1673ffffffffffffffffffffffffffffffffffffffff168152602001908152602001600020541461357d576040517f08c379a00000000000000000000000000000000000000000000000000000000081526004018080602001828103825260108152602001807f4e6f74206120726563697069656e74210000000000000000000000000000000081525060200191505060405180910390fd5b600960008373ffffffffffffffffffffffffffffffffffffffff1673ffffffffffffffffffffffffffffffffffffffff168152602001908152602001600020549050919050565b601160405180807f56656e646f7200000000000000000000000000000000000000000000000000008152506006019050908152602001604051809103902054600260003373ffffffffffffffffffffffffffffffffffffffff1673ffffffffffffffffffffffffffffffffffffffff16815260200190815260200160002054146136b6576040517f08c379a000000000000000000000000000000000000000000000000000000000815260040180806020018281038252601f8152602001807f4f6e6c792076656e646f72732063616e2077697468647261772068657265210081525060200191505060405180910390fd5b6136bf3361471e565b613731576040517f08c379a000000000000000000000000000000000000000000000000000000000815260040180806020018281038252600f8152602001807f496e76616c69642076656e646f7221000000000000000000000000000000000081525060200191505060405180910390fd5b80600c60003373ffffffffffffffffffffffffffffffffffffffff1673ffffffffffffffffffffffffffffffffffffffff16815260200190815260200160002054116137e5576040517f08c379a00000000000000000000000000000000000000000000000000000000081526004018080602001828103825260148152602001807f556e737566666369656e742062616c616e63652100000000000000000000000081525060200191505060405180910390fd5b80600c60003373ffffffffffffffffffffffffffffffffffffffff1673ffffffffffffffffffffffffffffffffffffffff168152602001908152602001600020600082825403925050819055503373ffffffffffffffffffffffffffffffffffffffff166108fc829081150290604051600060405180830381858888f19350505050158015613878573d6000803e3d6000fd5b5050565b6138853361471e565b6138f7576040517f08c379a000000000000000000000000000000000000000000000000000000000815260040180806020018281038252600f8152602001807f496e76616c69642073656e64657221000000000000000000000000000000000081525060200191505060405180910390fd5b601160405180807f526563697069656e7400000000000000000000000000000000000000000000008152506009019050908152602001604051809103902054600260003373ffffffffffffffffffffffffffffffffffffffff1673ffffffffffffffffffffffffffffffffffffffff1681526020019081526020016000205414806139fe5750601160405180807f4e504f00000000000000000000000000000000000000000000000000000000008152506003019050908152602001604051809103902054600260003373ffffffffffffffffffffffffffffffffffffffff1673ffffffffffffffffffffffffffffffffffffffff16815260200190815260200160002054145b613a53576040517f08c379a00000000000000000000000000000000000000000000000000000000081526004018080602001828103825260348152602001806149136034913960400191505060405180910390fd5b6010600083815260200190815260200160002060009054906101000a900460ff16613ae6576040517f08c379a000000000000000000000000000000000000000000000000000000000815260040180806020018281038252600e8152602001807f496e76616c696420676f6f64732e00000000000000000000000000000000000081525060200191505060405180910390fd5b601160405180807f526563697069656e7400000000000000000000000000000000000000000000008152506009019050908152602001604051809103902054600260003373ffffffffffffffffffffffffffffffffffffffff1673ffffffffffffffffffffffffffffffffffffffff168152602001908152602001600020541415613d315780600d60008481526020019081526020016000205402600960003373ffffffffffffffffffffffffffffffffffffffff1673ffffffffffffffffffffffffffffffffffffffff168152602001908152602001600020541015613c35576040517f08c379a00000000000000000000000000000000000000000000000000000000081526004018080602001828103825260128152602001807f4e6f7420656e6f75676820746f6b656e732e000000000000000000000000000081525060200191505060405180910390fd5b80600d60008481526020019081526020016000205402600c6000600f600086815260200190815260200160002060009054906101000a900473ffffffffffffffffffffffffffffffffffffffff1673ffffffffffffffffffffffffffffffffffffffff1673ffffffffffffffffffffffffffffffffffffffff1681526020019081526020016000206000828254019250508190555080600d60008481526020019081526020016000205402600960003373ffffffffffffffffffffffffffffffffffffffff1673ffffffffffffffffffffffffffffffffffffffff16815260200190815260200160002060008282540392505081905550613ef3565b80600d60008481526020019081526020016000205402600860003373ffffffffffffffffffffffffffffffffffffffff1673ffffffffffffffffffffffffffffffffffffffff168152602001908152602001600020541015613dfb576040517f08c379a00000000000000000000000000000000000000000000000000000000081526004018080602001828103825260208152602001807f496e737566666369656e74204e504f277320646f6e6174696f6e20706f6f6c2e81525060200191505060405180910390fd5b80600d60008481526020019081526020016000205402600c6000600f600086815260200190815260200160002060009054906101000a900473ffffffffffffffffffffffffffffffffffffffff1673ffffffffffffffffffffffffffffffffffffffff1673ffffffffffffffffffffffffffffffffffffffff1681526020019081526020016000206000828254019250508190555080600d60008481526020019081526020016000205402600860003373ffffffffffffffffffffffffffffffffffffffff1673ffffffffffffffffffffffffffffffffffffffff168152602001908152602001600020600082825403925050819055505b3373ffffffffffffffffffffffffffffffffffffffff166108fc349081150290604051600060405180830381858888f19350505050158015613f39573d6000803e3d6000fd5b505050565b601160405180807f446f6e6f720000000000000000000000000000000000000000000000000000008152506005019050908152602001604051809103902054600260003373ffffffffffffffffffffffffffffffffffffffff1673ffffffffffffffffffffffffffffffffffffffff1681526020019081526020016000205414614030576040517f08c379a00000000000000000000000000000000000000000000000000000000081526004018080602001828103825260178152602001807f4f6e6c7920646f6e6f72732063616e20646f6e6174652100000000000000000081525060200191505060405180910390fd5b3460016000828254019250508190555034600760003373ffffffffffffffffffffffffffffffffffffffff1673ffffffffffffffffffffffffffffffffffffffff16815260200190815260200160002060008282540192505081905550565b6000600260003373ffffffffffffffffffffffffffffffffffffffff1673ffffffffffffffffffffffffffffffffffffffff1681526020019081526020016000205414614144576040517f08c379a00000000000000000000000000000000000000000000000000000000081526004018080602001828103825260158152602001807f43616e277420726567697374657220747769636521000000000000000000000081525060200191505060405180910390fd5b600081118015614158575060128054905081105b6141ca576040517f08c379a00000000000000000000000000000000000000000000000000000000081526004018080602001828103825260108152602001807f496e76616c696420747970655f6964210000000000000000000000000000000081525060200191505060405180910390fd5b80600260003373ffffffffffffffffffffffffffffffffffffffff1673ffffffffffffffffffffffffffffffffffffffff168152602001908152602001600020819055506000600360003373ffffffffffffffffffffffffffffffffffffffff1673ffffffffffffffffffffffffffffffffffffffff16815260200190815260200160002060006101000a81548160ff0219169083151502179055506000600660003373ffffffffffffffffffffffffffffffffffffffff1673ffffffffffffffffffffffffffffffffffffffff16815260200190815260200160002081905550601160405180807f446f6e6f720000000000000000000000000000000000000000000000000000008152506005019050908152602001604051809103902054600260003373ffffffffffffffffffffffffffffffffffffffff1673ffffffffffffffffffffffffffffffffffffffff168152602001908152602001600020541415614389576001600360003373ffffffffffffffffffffffffffffffffffffffff1673ffffffffffffffffffffffffffffffffffffffff16815260200190815260200160002060006101000a81548160ff0219169083151502179055505b50565b6000600660008373ffffffffffffffffffffffffffffffffffffffff1673ffffffffffffffffffffffffffffffffffffffff168152602001908152602001600020549050919050565b6000600260003373ffffffffffffffffffffffffffffffffffffffff1673ffffffffffffffffffffffffffffffffffffffff16815260200190815260200160002054141561448b576040517f08c379a000000000000000000000000000000000000000000000000000000000815260040180806020018281038252600b8152602001807f4e6f74206120757365722e00000000000000000000000000000000000000000081525060200191505060405180910390fd5b6144943361471e565b614506576040517f08c379a00000000000000000000000000000000000000000000000000000000081526004018080602001828103825260158152602001807f4d75737420626520612076616c696420757365722e000000000000000000000081525060200191505060405180910390fd5b601160405180807f446f6e6f720000000000000000000000000000000000000000000000000000008152506005019050908152602001604051809103902054600260003373ffffffffffffffffffffffffffffffffffffffff1673ffffffffffffffffffffffffffffffffffffffff1681526020019081526020016000205414156145f9576040517f08c379a000000000000000000000000000000000000000000000000000000000815260040180806020018281038252601b8152602001807f446f6e6f727320646f6e742774206e65656420746f207175697421000000000081525060200191505060405180910390fd5b6000600360003373ffffffffffffffffffffffffffffffffffffffff1673ffffffffffffffffffffffffffffffffffffffff16815260200190815260200160002060006101000a81548160ff0219169083151502179055503373ffffffffffffffffffffffffffffffffffffffff166108fc600660003373ffffffffffffffffffffffffffffffffffffffff1673ffffffffffffffffffffffffffffffffffffffff168152602001908152602001600020549081150290604051600060405180830381858888f193505050501580156146d6573d6000803e3d6000fd5b506000600660003373ffffffffffffffffffffffffffffffffffffffff1673ffffffffffffffffffffffffffffffffffffffff16815260200190815260200160002081905550565b6000600360008373ffffffffffffffffffffffffffffffffffffffff1673ffffffffffffffffffffffffffffffffffffffff16815260200190815260200160002060009054906101000a900460ff169050919050565b6000600460008373ffffffffffffffffffffffffffffffffffffffff1673ffffffffffffffffffffffffffffffffffffffff16815260200190815260200160002060009054906101000a900460ff16905091905056fe4e656564206465736372697074696f6e206265666f72652076616c69646174696f6e2e4f6e6c79204e504f732063616e2072656469737472696275746520746865697220646f6e6174696f6e73215374616b696e67206973206e6f74206176616c6961626c6520666f7220646f6e6f722e496e73756666696369656e74207374616b696e672e204e656564206d6f726520746f6b656e73214c6f636b656420616464726573732c2063616e27742062652076616c696461746564214f6e6c7920696e76616c696420616464726573732063616e2062652076616c696461746564214f6e6c7920726563697069656e74732063616e2077697468647261772068657265214f6e6c79204e4f542076656e646f72732063616e20626520646f6e6174656420746f214f6e6c7920726563697069656e74732063616e20626520646f6e6174656420746f214f6e6c7920726563697069656e747320616e64204e504f732063616e2062757920676f6f64732066726f6d2076656e646f72732153706f6e736f72696e6720616d6f7574206973206174206c65617374203130302043465820656163682074696d652e4f6e6c79204e4f5420646f6e6f72732063616e20626520646f6e6174656420746f2143616e27742063616e63656c20676f6f6473207468617420646f6e27742062656c6f6e6720746f20796f752ea26469706673582212201e68e6025cd06b12676af6f2cbf7fa692943dce0088a177ebb5a2d6ba96c4e8764736f6c63430007030033",
  "immutableReferences": {},
  "source": "pragma solidity >=0.5.0;\r\n\r\nimport \"./SponsorWhitelistControl.sol\";\r\n\r\ncontract ProjectX {\r\n    // admin records\r\n    address project_admin;\r\n    uint256 admin_donation_pool;\r\n    \r\n    // Unit informations\r\n    mapping (address => uint) private types;\r\n    mapping (address => bool) private validations;\r\n    mapping (address => bool) private lock;               // admin lock control\r\n    mapping (address => bytes32) private descriptions;    // sha256( description )\r\n\r\n    // global records\r\n    mapping (address => uint256) private staking_fund;\r\n    mapping (address => uint256) private donation_record;\r\n    mapping (address => uint256) private NPO_donation_pool;\r\n    mapping (address => uint256) private Recipient_donation_pool;\r\n    mapping (address => uint256) private CrowdFund_donation_pool;\r\n    mapping (address => uint256) private CrowdFund_donation_target;\r\n    mapping (address => uint256) private Vendor_pool;\r\n    mapping (uint256 => uint256) private goods_price;     // goods_number to goods_price\r\n    mapping (uint256 => bytes32) private goods_description;\r\n    mapping (uint256 => address) private goods_providing_vendor;\r\n    mapping (uint256 => bool) private goods_valid;\r\n    \r\n    // type info\r\n    mapping (string => uint) private type_map;\r\n    string[] private type_list = [\"default\", \"Donor\", \"NPO\", \"Recipient\", \"CrowdFund\", \"Vendor\"];\r\n    mapping (string => uint256) private staking_price;\r\n\r\n    // initialization\r\n    constructor() {\r\n        // admin settings\r\n        project_admin = msg.sender;\r\n        admin_donation_pool = 0;\r\n\r\n        // type settings\r\n        for(uint i = 1; i < type_list.length; i++){\r\n            type_map[ type_list[i] ] = i;\r\n        }\r\n\r\n        // staking price initializaions\r\n        staking_price[\"Recipient\"] = 23 * 1e18;\r\n        staking_price[\"NPO\"] = 233 * 1e18;\r\n        staking_price[\"Vendor\"] = 666 * 1e18;\r\n        staking_price[\"CrowdFund\"] = 2333 * 1e18;\r\n\r\n        // Whitelist sponsor settings\r\n        SponsorWhitelistControl swc = SponsorWhitelistControl(0x0888000000000000000000000000000000000001); // Whitelist contract address\r\n        address[] memory a = new address[](1);\r\n        a[0] = 0x0000000000000000000000000000000000000000;  // sponsor for everyone\r\n        swc.addPrivilege(a);\r\n    }\r\n    \r\n    function register(uint type_id) public {\r\n        require(types[msg.sender] == uint(0x0), \"Can't register twice!\");\r\n        require(type_id > 0 && type_id < type_list.length, \"Invalid type_id!\");\r\n        \r\n        // register basic infos\r\n        types[msg.sender] = type_id;\r\n        validations[msg.sender] = false;\r\n        staking_fund[msg.sender] = 0;\r\n\r\n        // Donors is valid by default.\r\n        if(types[msg.sender] == type_map[\"Donor\"]){\r\n            validations[msg.sender] = true;\r\n        }\r\n    }\r\n    \r\n    // staking to ensure safety\r\n    function stake() public payable {\r\n        require(types[msg.sender] != uint(0x0), \"Need to register first!\");\r\n        \r\n        // One can stake as many times as one wants.\r\n        // // require(staking_fund[msg.sender] == 0, \"Only unstaked address can be staked!\");\r\n\r\n        // But each staking must abide by the following rule\r\n        require(staking_fund[msg.sender] + msg.value > staking_price[ type_list[ types[msg.sender] ] ], \"Insufficient staking. Need more tokens!\");\r\n        \r\n        require(types[msg.sender] != type_map[\"Donor\"], \"Staking is not avaliable for donor.\");\r\n\r\n        // Theoretically one can staking whatever one wants\r\n        // as long as it's higer than the lowerbound \"staking_price\"\r\n        // TODO: This can be used in reputation system to evaluate reputation scores\r\n        staking_fund[msg.sender] += msg.value;\r\n    }\r\n    \r\n    // describe an adress's purpose\r\n    function describe(bytes32 encripted_description_hash) public {\r\n        require(types[msg.sender] != uint(0x0), \"Need to register first!\");\r\n\r\n        descriptions[msg.sender] = encripted_description_hash;\r\n    }\r\n\r\n    // validate an address\r\n    function validate() public {\r\n        require(!is_locked(msg.sender), \"Locked address, can't be validated!\");\r\n        require(!is_valid(msg.sender), \"Only invalid address can be validated!\");\r\n        require(staking_fund[msg.sender] != 0, \"Need staking before validation.\");\r\n        require(descriptions[msg.sender] != bytes32(0x0), \"Need description before validation.\");\r\n        \r\n        // TODO: branches to be designed\r\n        validations[msg.sender] = true;\r\n    }\r\n    \r\n    // donation to the contract\r\n    function donate() public payable {\r\n        require(types[msg.sender] == type_map[\"Donor\"], \"Only donors can donate!\");\r\n        // require(msg.value > 0, \"Invalid donation!\");\r\n        admin_donation_pool += msg.value;\r\n        donation_record[msg.sender] += msg.value;\r\n    }\r\n    \r\n    // Donor: p2p donation using CFX\r\n    function donate_to(address payable receiver) public payable {\r\n        require(is_valid(msg.sender), \"Invalid sender!\");\r\n        require(is_valid(receiver), \"Invalid receiver!\");\r\n\r\n        require(types[receiver] != uint(0x0), \"Unregistered receiver!\");\r\n        require(types[msg.sender] == type_map[\"Donor\"], \"Only donors can donate!\");\r\n        require(types[receiver] != type_map[\"Donor\"], \"Only NOT donors can be donated to!\");\r\n        require(types[receiver] != type_map[\"Vendor\"], \"Only NOT vendors can be donated to!\");\r\n\r\n        require(msg.value > 0, \"Invalid donation!\");\r\n\r\n        // Seperate situations\r\n        if(types[receiver] == type_map[\"Recipient\"]){\r\n            // support transferring directly from sender to receiver\r\n            \r\n            Recipient_donation_pool[receiver] += msg.value;\r\n            //receiver.transfer(msg.value);\r\n            donation_record[msg.sender] += msg.value;\r\n        }\r\n        else if(types[receiver] == type_map[\"NPO\"]){\r\n            NPO_donation_pool[receiver] += msg.value;\r\n            donation_record[msg.sender] += msg.value;\r\n        }\r\n        else if(types[receiver] == type_map[\"CrowdFund\"]){\r\n            require(CrowdFund_donation_pool[receiver] < CrowdFund_donation_target[receiver], \"Donation target completed!\");\r\n            uint256 lim = CrowdFund_donation_target[receiver] - CrowdFund_donation_pool[receiver];\r\n            if(msg.value > lim){\r\n                // refund the overflowed donations\r\n                msg.sender.transfer(msg.value - lim);\r\n                CrowdFund_donation_pool[receiver] = CrowdFund_donation_target[receiver];\r\n                donation_record[msg.sender] += lim;\r\n            } else{\r\n                CrowdFund_donation_pool[receiver] += msg.value;\r\n                donation_record[msg.sender] += msg.value;\r\n            }\r\n        }\r\n        \r\n    }\r\n\r\n    // Buy all kinds of goods from vendors\r\n    function buy_goods(uint256 goods_number, uint quantity) public payable {\r\n        require(is_valid(msg.sender), \"Invalid sender!\");\r\n        require(types[msg.sender] == type_map[\"Recipient\"] || types[msg.sender] == type_map[\"NPO\"], \"Only recipients and NPOs can buy goods from vendors!\");\r\n        require(goods_valid[goods_number], \"Invalid goods.\");\r\n\r\n        if(types[msg.sender] == type_map[\"Recipient\"]){\r\n            require(Recipient_donation_pool[msg.sender] >= goods_price[goods_number] * quantity, \"Not enough tokens.\");\r\n\r\n            Vendor_pool[ goods_providing_vendor[goods_number] ] += goods_price[goods_number] * quantity;\r\n            // // refund the overflows\r\n            //msg.sender.transfer(msg.value - goods_price[goods_number] * quantity);\r\n            Recipient_donation_pool[msg.sender] -= goods_price[goods_number] * quantity;\r\n        } else{\r\n            require(NPO_donation_pool[msg.sender] >= goods_price[goods_number] * quantity, \"Insuffcient NPO's donation pool.\");\r\n            \r\n            Vendor_pool[ goods_providing_vendor[goods_number] ] += goods_price[goods_number] * quantity;\r\n            \r\n            NPO_donation_pool[msg.sender] -= goods_price[goods_number] * quantity;\r\n        }\r\n\r\n        // refund misprovided CFXs (if there are any)\r\n        msg.sender.transfer(msg.value);\r\n    }\r\n\r\n    // Only NPO to Recipient\r\n    // all amount'unit is Drip\r\n    function NPO_distribute(address payable receiver, uint256 amount) public payable {\r\n        require(is_valid(msg.sender), \"Invalid sender!\");\r\n        require(is_valid(receiver), \"Invalid receiver!\");\r\n\r\n        require(types[msg.sender] == type_map[\"NPO\"], \"Only NPOs can redistribute their donations!\");\r\n        require(types[receiver] == type_map[\"Recipient\"], \"Only recipients can be donated to!\");\r\n\r\n        require(NPO_donation_pool[msg.sender] >= amount, \"Insuffcient NPO's donation pool.\");\r\n        \r\n        NPO_donation_pool[msg.sender] -= amount;\r\n        //// Another direct transferring, it's out of the system\r\n        //receiver.transfer(amount);\r\n        Recipient_donation_pool[receiver] += amount;\r\n    }\r\n    \r\n    // Only vendors can register goods\r\n    function vendor_register_goods(uint256 goods_number, uint256 price, bytes32 description) public{\r\n        require(types[msg.sender] == type_map[\"Vendor\"], \"Only vendors can withdraw!\");\r\n        require(is_valid(msg.sender), \"Invalid vendor!\");\r\n        require(goods_description[goods_number] == bytes32(0x0), \"Goods_number exists.\");\r\n\r\n        goods_price[goods_number] = price;  // unit is Drip\r\n        goods_description[goods_number] = description;\r\n        goods_providing_vendor[goods_number] = msg.sender;\r\n        goods_valid[goods_number] = true;\r\n    }\r\n    // Only vendors can cancel goods\r\n    function vendor_cancel_goods(uint256 goods_number) public{\r\n        require(types[msg.sender] == type_map[\"Vendor\"], \"Only vendors can withdraw!\");\r\n        require(is_valid(msg.sender), \"Invalid vendor!\");\r\n        require(goods_providing_vendor[goods_number] == msg.sender, \"Can't cancel goods that don't belong to you.\");\r\n\r\n        goods_valid[goods_number] = false;\r\n    }\r\n\r\n    // Only vendors can cash out\r\n    function vendor_withdraw(uint256 amount) public payable {\r\n        require(types[msg.sender] == type_map[\"Vendor\"], \"Only vendors can withdraw here!\");\r\n        require(is_valid(msg.sender), \"Invalid vendor!\");\r\n        require(Vendor_pool[msg.sender] > amount, \"Unsuffcient balance!\");\r\n\r\n        Vendor_pool[msg.sender] -= amount;\r\n        msg.sender.transfer(amount);\r\n    }\r\n\r\n    // cash out all the tokens\r\n    function vendor_withdraw_all() public {\r\n        vendor_withdraw(Vendor_pool[msg.sender]);\r\n    }\r\n\r\n    // Only recipients can cash out\r\n    function recipient_withdraw(uint256 amount) public payable {\r\n        require(types[msg.sender] == type_map[\"Recipient\"], \"Only recipients can withdraw here!\");\r\n        require(is_valid(msg.sender), \"Invalid recipient!\");\r\n        require(Recipient_donation_pool[msg.sender] > amount, \"Unsuffcient balance!\");\r\n\r\n        Recipient_donation_pool[msg.sender] -= amount;\r\n        msg.sender.transfer(amount);\r\n    }\r\n\r\n    // cash out all the tokens\r\n    function recipient_withdraw_all() public {\r\n        recipient_withdraw(Recipient_donation_pool[msg.sender]);\r\n    }\r\n\r\n    // cancel validation and get staking tokens back\r\n    function quit() public {\r\n        require(types[msg.sender] != uint(0x0), \"Not a user.\");\r\n        require(is_valid(msg.sender), \"Must be a valid user.\");\r\n        require(types[msg.sender] != type_map[\"Donor\"], \"Donors dont't need to quit!\");\r\n\r\n        validations[msg.sender] = false;\r\n        \r\n        msg.sender.transfer( staking_fund[msg.sender] );\r\n        staking_fund[msg.sender] = 0;\r\n\r\n        // // optioncal\r\n        // descriptions[msg.sender] == bytes32(0x0);\r\n    }\r\n\r\n    // anyone can sponsor for the transaction fee\r\n    // sponsorship\r\n    function sponsor() public payable{\r\n        // TODO\r\n        require(msg.value >= 1e20, \"Sponsoring amout is at least 100 CFX each time.\");\r\n\r\n        address payable swc_address = 0x0888000000000000000000000000000000000001;\r\n        SponsorWhitelistControl swc = SponsorWhitelistControl(swc_address);  // Whitelist contract address\r\n        swc.setSponsorForGas(\r\n            address(this),             // this contract's address\r\n            100000000000000000         // upper limit per transaction: 0.1 CFX\r\n        );\r\n        swc_address.transfer(msg.value);\r\n    }\r\n\r\n\r\n    // view only functions\r\n    function get_admin_donation_pool() public view returns (uint256){\r\n        return admin_donation_pool;\r\n    }\r\n    function get_donation_record(address a) public view returns (uint256){\r\n        require(types[a] == type_map[\"Donor\"], \"Not a donor!\");\r\n        return donation_record[a];\r\n    }\r\n    function get_Recipient_donation_pool(address a) public view returns (uint256){\r\n        require(types[a] == type_map[\"Recipient\"], \"Not a recipient!\");\r\n        return Recipient_donation_pool[a];\r\n    }\r\n    function get_NPO_donation_pool(address a) public view returns (uint256){\r\n        require(types[a] == type_map[\"NPO\"], \"Not an NPO!\");\r\n        return NPO_donation_pool[a];\r\n    }\r\n    function get_CrowdFund_donation_pool(address a) public view returns (uint256){\r\n        require(types[a] == type_map[\"CrowdFund\"], \"Not a crowdfund!\");\r\n        return CrowdFund_donation_pool[a];\r\n    }\r\n    function get_CrowdFund_donation_target(address a) public view returns (uint256){\r\n        require(types[a] == type_map[\"CrowdFund\"], \"Not a crowdfund!\");\r\n        return CrowdFund_donation_target[a];\r\n    }\r\n    function get_Vendor_pool(address a) public view returns (uint256){\r\n        require(types[a] == type_map[\"Vendor\"], \"Not a vendor!\");\r\n        return Vendor_pool[a];\r\n    }\r\n    function get_type_ID(address a) public view returns(uint) {\r\n        return types[a];\r\n    }\r\n    function get_staked_fund(address a) public view returns(uint256) {\r\n        return staking_fund[a];\r\n    }\r\n    function get_description_hash(address a) public view returns(bytes32) {\r\n        return descriptions[a];\r\n    }\r\n    function get_staking_price(uint type_id) public view returns(uint256) {\r\n        require(type_id > 0 && type_id < type_list.length, \"Invalid type_id!\");\r\n        return staking_price[type_list[type_id]];\r\n    }\r\n\r\n    function is_valid(address a) private view returns(bool) {\r\n        return validations[a];\r\n    }\r\n    function is_locked(address a) private view returns(bool) {\r\n        return lock[a];\r\n    }\r\n\r\n    /// admin control\r\n    ///\r\n    // Caution: amount's unit is Drip.\r\n    function set_staking_price(uint type_id, uint256 amount) public {\r\n        require(msg.sender == project_admin, \"Admin permission denied.\");\r\n        require(type_id > 0 && type_id < type_list.length, \"Invalid type_id!\");\r\n        staking_price[type_list[type_id]] = amount;\r\n    }\r\n    // admin can lock adresses with suspicious behaviors\r\n    function lock_address(address a) public {\r\n        require(msg.sender == project_admin, \"Admin permission denied.\");\r\n        lock[a] = true;\r\n        validations[a] = false;\r\n    }\r\n    function unlock(address a) public {\r\n        require(msg.sender == project_admin, \"Admin permission denied.\");\r\n        lock[a] = false;\r\n    }\r\n\r\n    // test functions\r\n    //function get_test_encripted_description_hash(bytes32) public view {\r\n    //    return bytes32(\"2333. What a miracle!\");\r\n    //}\r\n\r\n}",
  "sourcePath": "/d/git_repos/uma_bbnc_project/Project X/contracts/ProjectX.sol",
  "compiler": {
    "name": "solc",
    "version": "0.7.3+commit.9bfce1f6.Linux.g++"
  },
  "schemaVersion": "3.2.0",
  "updatedAt": "2020-12-07T07:16:08.955Z",
  "devdoc": {
    "kind": "dev",
    "methods": {},
    "version": 1
  },
  "userdoc": {
    "kind": "user",
    "methods": {
      "set_staking_price(uint256,uint256)": {
        "notice": "admin control"
      }
    },
    "version": 1
  }
}