{
  "contractName": "SponsorWhitelistControl",
  "abi": [
    {
      "inputs": [
        {
          "internalType": "address",
          "name": "contract_addr",
          "type": "address"
        },
        {
          "internalType": "uint256",
          "name": "upper_bound",
          "type": "uint256"
        }
      ],
      "name": "set_sponsor_for_gas",
      "outputs": [],
      "stateMutability": "payable",
      "type": "function"
    },
    {
      "inputs": [
        {
          "internalType": "address",
          "name": "contract_addr",
          "type": "address"
        }
      ],
      "name": "set_sponsor_for_collateral",
      "outputs": [],
      "stateMutability": "payable",
      "type": "function"
    },
    {
      "inputs": [
        {
          "internalType": "address[]",
          "name": "",
          "type": "address[]"
        }
      ],
      "name": "add_privilege",
      "outputs": [],
      "stateMutability": "nonpayable",
      "type": "function"
    },
    {
      "inputs": [
        {
          "internalType": "address[]",
          "name": "",
          "type": "address[]"
        }
      ],
      "name": "remove_privilege",
      "outputs": [],
      "stateMutability": "nonpayable",
      "type": "function"
    }
  ],
  "bytecode": "0x608060405234801561001057600080fd5b506102a3806100206000396000f3fe60806040526004361061003f5760003560e01c80630862bf681461004457806344c0bd2114610088578063e9ac3d4a1461014d578063fe15156c1461019b575b600080fd5b6100866004803603602081101561005a57600080fd5b81019080803573ffffffffffffffffffffffffffffffffffffffff169060200190929190505050610260565b005b34801561009457600080fd5b5061014b600480360360208110156100ab57600080fd5b81019080803590602001906401000000008111156100c857600080fd5b8201836020820111156100da57600080fd5b803590602001918460208302840111640100000000831117156100fc57600080fd5b919080806020026020016040519081016040528093929190818152602001838360200280828437600081840152601f19601f820116905080830192505050505050509192919290505050610263565b005b6101996004803603604081101561016357600080fd5b81019080803573ffffffffffffffffffffffffffffffffffffffff16906020019092919080359060200190929190505050610266565b005b3480156101a757600080fd5b5061025e600480360360208110156101be57600080fd5b81019080803590602001906401000000008111156101db57600080fd5b8201836020820111156101ed57600080fd5b8035906020019184602083028401116401000000008311171561020f57600080fd5b919080806020026020016040519081016040528093929190818152602001838360200280828437600081840152601f19601f82011690508083019250505050505050919291929050505061026a565b005b50565b50565b5050565b5056fea26469706673582212207d452da21fb51d59517cf5fc3c924b13e89d2792f387efa132a3d1815febf04964736f6c63430007030033",
  "immutableReferences": {},
  "source": "pragma solidity >=0.4.15;\r\n\r\ncontract SponsorWhitelistControl {\r\n    // ------------------------------------------------------------------------\r\n    // Someone will sponsor the gas cost for contract `contract_addr` with an\r\n    // `upper_bound` for a single transaction.\r\n    // ------------------------------------------------------------------------\r\n    function set_sponsor_for_gas(address contract_addr, uint upper_bound) public payable {\r\n    }\r\n\r\n    // ------------------------------------------------------------------------\r\n    // Someone will sponsor the storage collateral for contract `contract_addr`.\r\n    // ------------------------------------------------------------------------\r\n    function set_sponsor_for_collateral(address contract_addr) public payable {\r\n    }\r\n\r\n    // ------------------------------------------------------------------------\r\n    // Add commission privilege for address `user` to some contract.\r\n    // ------------------------------------------------------------------------\r\n    function add_privilege(address[] memory) public {\r\n    }\r\n\r\n    // ------------------------------------------------------------------------\r\n    // Remove commission privilege for address `user` from some contract.\r\n    // ------------------------------------------------------------------------\r\n    function remove_privilege(address[] memory) public {\r\n    }\r\n}",
  "sourcePath": "/d/!vel_files/Blockchain_UMA/!project/Project X/contracts/SponsorWhitelistControl.sol",
  "compiler": {
    "name": "solc",
    "version": "0.7.3+commit.9bfce1f6.Linux.g++"
  },
  "schemaVersion": "3.2.0",
  "updatedAt": "2020-11-30T15:13:13.720Z",
  "devdoc": {
    "kind": "dev",
    "methods": {},
    "version": 1
  },
  "userdoc": {
    "kind": "user",
    "methods": {},
    "version": 1
  }
}