{
  "contractName": "Tickets",
  "abi": [
    {
      "inputs": [
        {
          "internalType": "uint256",
          "name": "tickets",
          "type": "uint256"
        },
        {
          "internalType": "uint256",
          "name": "price",
          "type": "uint256"
        },
        {
          "internalType": "uint256",
          "name": "upcoming_days_of_the_event",
          "type": "uint256"
        }
      ],
      "stateMutability": "nonpayable",
      "type": "constructor"
    },
    {
      "anonymous": false,
      "inputs": [
        {
          "indexed": false,
          "internalType": "address",
          "name": "visitor",
          "type": "address"
        },
        {
          "indexed": false,
          "internalType": "uint256",
          "name": "tickets",
          "type": "uint256"
        }
      ],
      "name": "Validated",
      "type": "event"
    },
    {
      "inputs": [
        {
          "internalType": "address",
          "name": "",
          "type": "address"
        }
      ],
      "name": "has_ticket",
      "outputs": [
        {
          "internalType": "uint256",
          "name": "",
          "type": "uint256"
        }
      ],
      "stateMutability": "view",
      "type": "function"
    },
    {
      "inputs": [],
      "name": "num_tickets",
      "outputs": [
        {
          "internalType": "uint256",
          "name": "",
          "type": "uint256"
        }
      ],
      "stateMutability": "view",
      "type": "function"
    },
    {
      "inputs": [],
      "name": "owner",
      "outputs": [
        {
          "internalType": "address",
          "name": "",
          "type": "address"
        }
      ],
      "stateMutability": "view",
      "type": "function"
    },
    {
      "inputs": [],
      "name": "price_drips",
      "outputs": [
        {
          "internalType": "uint256",
          "name": "",
          "type": "uint256"
        }
      ],
      "stateMutability": "view",
      "type": "function"
    },
    {
      "inputs": [],
      "name": "start",
      "outputs": [
        {
          "internalType": "uint256",
          "name": "",
          "type": "uint256"
        }
      ],
      "stateMutability": "view",
      "type": "function"
    },
    {
      "inputs": [
        {
          "internalType": "address",
          "name": "contract_name",
          "type": "address"
        }
      ],
      "name": "sponsor",
      "outputs": [],
      "stateMutability": "payable",
      "type": "function"
    },
    {
      "inputs": [
        {
          "internalType": "uint256",
          "name": "tickets",
          "type": "uint256"
        }
      ],
      "name": "buy",
      "outputs": [],
      "stateMutability": "payable",
      "type": "function"
    },
    {
      "inputs": [
        {
          "internalType": "address",
          "name": "visitor",
          "type": "address"
        }
      ],
      "name": "validate",
      "outputs": [],
      "stateMutability": "nonpayable",
      "type": "function"
    },
    {
      "inputs": [],
      "name": "withdraw",
      "outputs": [],
      "stateMutability": "nonpayable",
      "type": "function"
    }
  ],
  "bytecode": "0x60806040526064600155678ac7230489e8000060025534801561002157600080fd5b50604051610c7b380380610c7b8339818101604052606081101561004457600080fd5b810190808051906020019092919080519060200190929190805190602001909291905050506000730888000000000000000000000000000000000001905060008190506060600167ffffffffffffffff811180156100a157600080fd5b506040519080825280602002602001820160405280156100d05781602001602082028036833780820191505090505b5090506000816000815181106100e257fe5b602002602001019073ffffffffffffffffffffffffffffffffffffffff16908173ffffffffffffffffffffffffffffffffffffffff16815250508173ffffffffffffffffffffffffffffffffffffffff1663fe15156c826040518263ffffffff1660e01b81526004018080602001828103825283818151815260200191508051906020019060200280838360005b8381101561018b578082015181840152602081019050610170565b5050505090500192505050600060405180830381600087803b1580156101b057600080fd5b505af11580156101c4573d6000803e3d6000fd5b50505050336000806101000a81548173ffffffffffffffffffffffffffffffffffffffff021916908373ffffffffffffffffffffffffffffffffffffffff16021790555085600181905550670de0b6b3a764000085026002819055504262015180850201600381905550505050505050610a38806102436000396000f3fe6080604052600436106100865760003560e01c80638da5cb5b116100595780638da5cb5b14610162578063b21f43b4146101a3578063be9a6555146101ce578063cfb22335146101f9578063d96a094a1461025e57610086565b8063207c64fb1461008b5780633ccfd60b146100dc578063766c4f37146100f357806384d25bff14610137575b600080fd5b34801561009757600080fd5b506100da600480360360208110156100ae57600080fd5b81019080803573ffffffffffffffffffffffffffffffffffffffff16906020019092919050505061028c565b005b3480156100e857600080fd5b506100f16104e4565b005b6101356004803603602081101561010957600080fd5b81019080803573ffffffffffffffffffffffffffffffffffffffff169060200190929190505050610654565b005b34801561014357600080fd5b5061014c610708565b6040518082815260200191505060405180910390f35b34801561016e57600080fd5b5061017761070e565b604051808273ffffffffffffffffffffffffffffffffffffffff16815260200191505060405180910390f35b3480156101af57600080fd5b506101b8610732565b6040518082815260200191505060405180910390f35b3480156101da57600080fd5b506101e3610738565b6040518082815260200191505060405180910390f35b34801561020557600080fd5b506102486004803603602081101561021c57600080fd5b81019080803573ffffffffffffffffffffffffffffffffffffffff16906020019092919050505061073e565b6040518082815260200191505060405180910390f35b61028a6004803603602081101561027457600080fd5b8101908080359060200190929190505050610756565b005b60008054906101000a900473ffffffffffffffffffffffffffffffffffffffff1673ffffffffffffffffffffffffffffffffffffffff163373ffffffffffffffffffffffffffffffffffffffff161461034d576040517f08c379a00000000000000000000000000000000000000000000000000000000081526004018080602001828103825260158152602001807f5449434b4554533a20756e617574686f72697a6564000000000000000000000081525060200191505060405180910390fd5b6000600460008373ffffffffffffffffffffffffffffffffffffffff1673ffffffffffffffffffffffffffffffffffffffff1681526020019081526020016000205411610402576040517f08c379a000000000000000000000000000000000000000000000000000000000815260040180806020018281038252601e8152602001807f5449434b4554533a2076697369746f7220686173206e6f207469636b6574000081525060200191505060405180910390fd5b6000600460008373ffffffffffffffffffffffffffffffffffffffff1673ffffffffffffffffffffffffffffffffffffffff1681526020019081526020016000205490506000600460008473ffffffffffffffffffffffffffffffffffffffff1673ffffffffffffffffffffffffffffffffffffffff168152602001908152602001600020819055507f8cd88dc599bd71b2c0b18ad6702dcefe3aef0628c00cb7ab9026ab89fd35f1258282604051808373ffffffffffffffffffffffffffffffffffffffff1681526020018281526020019250505060405180910390a15050565b60008054906101000a900473ffffffffffffffffffffffffffffffffffffffff1673ffffffffffffffffffffffffffffffffffffffff163373ffffffffffffffffffffffffffffffffffffffff16146105a5576040517f08c379a00000000000000000000000000000000000000000000000000000000081526004018080602001828103825260158152602001807f5449434b4554533a20756e617574686f72697a6564000000000000000000000081525060200191505060405180910390fd5b6201518060035401421015610605576040517f08c379a000000000000000000000000000000000000000000000000000000000815260040180806020018281038252602b8152602001806109b2602b913960400191505060405180910390fd5b60004790503373ffffffffffffffffffffffffffffffffffffffff166108fc829081150290604051600060405180830381858888f19350505050158015610650573d6000803e3d6000fd5b5050565b6000730888000000000000000000000000000000000001905060008190508073ffffffffffffffffffffffffffffffffffffffff1663e9ac3d4a8467016345785d8a00006040518363ffffffff1660e01b8152600401808373ffffffffffffffffffffffffffffffffffffffff16815260200182815260200192505050600060405180830381600087803b1580156106eb57600080fd5b505af11580156106ff573d6000803e3d6000fd5b50505050505050565b60025481565b60008054906101000a900473ffffffffffffffffffffffffffffffffffffffff1681565b60015481565b60035481565b60046020528060005260406000206000915090505481565b611c20600354034211156107b5576040517f08c379a00000000000000000000000000000000000000000000000000000000081526004018080602001828103825260268152602001806109dd6026913960400191505060405180910390fd5b60006001541180156107c957506001548111155b80156107d55750600081115b610847576040517f08c379a000000000000000000000000000000000000000000000000000000000815260040180806020018281038252601a8152602001807f5449434b4554533a20696c6c6567616c206f7065726174696f6e00000000000081525060200191505060405180910390fd5b600254810234146108c0576040517f08c379a00000000000000000000000000000000000000000000000000000000081526004018080602001828103825260198152602001807f5449434b4554533a20696e636f727265637420616d6f756e740000000000000081525060200191505060405180910390fd5b6000600460003373ffffffffffffffffffffffffffffffffffffffff1673ffffffffffffffffffffffffffffffffffffffff16815260200190815260200160002054146109595780600460003373ffffffffffffffffffffffffffffffffffffffff1673ffffffffffffffffffffffffffffffffffffffff1681526020019081526020016000206000828254019250508190555061099e565b80600460003373ffffffffffffffffffffffffffffffffffffffff1673ffffffffffffffffffffffffffffffffffffffff168152602001908152602001600020819055505b806001600082825403925050819055505056fe5449434b4554533a2063616e27742077697468647261772064756520746f2074696d6520726561736f6e735449434b4554533a2063616e2774206275742064756520746f2074696d6520726561736f6e73a2646970667358221220ba88d9694ee02a0765fbbb12f68f868b10d42d14beb92b271ad6d94dcf128b0c64736f6c63430007030033",
  "immutableReferences": {},
  "source": "// SPDX-License-Identifier: GPL-3.0\n\npragma solidity ^0.7.3;\n\nimport \"./SponsorWhitelistControl.sol\";\n\ncontract Tickets {\n    address public owner;\n\n    uint256 public num_tickets = 100;\n    uint256 public price_drips = 10 * 1e18; // 10 CFX\n    uint256 public start;\n    mapping (address => uint256) public has_ticket;\n\n    event Validated(address visitor, uint256 tickets);\n\n    constructor(uint256 tickets, uint256 price, uint256 upcoming_days_of_the_event) {\n        address addr = 0x0888000000000000000000000000000000000001;  // 白名单合约地址\n        SponsorWhitelistControl swc = SponsorWhitelistControl(addr);\n        \n        address[] memory a = new address[](1);\n        a[0] = 0x0000000000000000000000000000000000000000;  // 代付所有人\n        swc.add_privilege(a);\n\n        owner = msg.sender;\n        num_tickets = tickets;\n        price_drips = price * 1e18;\n        start = upcoming_days_of_the_event * 1 days + block.timestamp;\n    }\n\n    // sponsorship\n    function sponsor(address contract_name) public payable{\n        address addr = 0x0888000000000000000000000000000000000001;  // 白名单合约地址\n        SponsorWhitelistControl swc = SponsorWhitelistControl(addr);\n        swc.set_sponsor_for_gas(\n            contract_name, // contract\n            100000000000000000 // upper limit per transaction: 0.1 CFX\n        );\n    }\n\n    // buy ticket\n    function buy(uint256 tickets) public payable {\n        // check time\n        require(block.timestamp <= start - 2 hours, \"TICKETS: can't but due to time reasons\");\n        \n        // check tickets\n        require(num_tickets > 0 && tickets <= num_tickets && tickets > 0, \"TICKETS: illegal operation\");\n\n        // check if the buying price is correct\n        require(msg.value == tickets * price_drips, \"TICKETS: incorrect amount\");\n\n        // successful buy\n        if( has_ticket[msg.sender] != 0 )\n            has_ticket[msg.sender] += tickets;\n        else\n            has_ticket[msg.sender] = tickets;\n        num_tickets -= tickets;\n    }\n\n    // validate ticket\n    function validate(address visitor) public {\n        require(msg.sender == owner, \"TICKETS: unauthorized\");\n        require(has_ticket[visitor] > 0, \"TICKETS: visitor has no ticket\");\n\n        uint256 tickets = has_ticket[visitor];\n        has_ticket[visitor] = 0;\n        emit Validated(visitor, tickets);\n    }\n\n    // withdraw profit\n    function withdraw() public {\n        require(msg.sender == owner, \"TICKETS: unauthorized\");\n\n        require(block.timestamp >= start + 1 days, \"TICKETS: can't withdraw due to time reasons\");\n\n        uint256 profit = address(this).balance;\n        msg.sender.transfer(profit);\n    }\n}",
  "sourcePath": "/d/git_repos/uma_bbnc_project/Project X/contracts/Tickets.sol",
  "compiler": {
    "name": "solc",
    "version": "0.7.3+commit.9bfce1f6.Linux.g++"
  },
  "schemaVersion": "3.2.0",
  "updatedAt": "2020-12-03T08:42:34.114Z",
  "devdoc": {
    "kind": "dev",
    "methods": {},
    "version": 1
  },
  "userdoc": {
    "kind": "user",
    "methods": {},
    "version": 1
  }
}